{
  "_format": "hh-sol-artifact-1",
  "contractName": "VaporPlanes",
  "sourceName": "contracts/VaporPlanes.sol",
  "abi": [
    {
      "inputs": [],
      "stateMutability": "nonpayable",
      "type": "constructor"
    },
    {
      "anonymous": false,
      "inputs": [
        {
          "indexed": true,
          "internalType": "address",
          "name": "owner",
          "type": "address"
        },
        {
          "indexed": true,
          "internalType": "address",
          "name": "approved",
          "type": "address"
        },
        {
          "indexed": true,
          "internalType": "uint256",
          "name": "tokenId",
          "type": "uint256"
        }
      ],
      "name": "Approval",
      "type": "event"
    },
    {
      "anonymous": false,
      "inputs": [
        {
          "indexed": true,
          "internalType": "address",
          "name": "owner",
          "type": "address"
        },
        {
          "indexed": true,
          "internalType": "address",
          "name": "operator",
          "type": "address"
        },
        {
          "indexed": false,
          "internalType": "bool",
          "name": "approved",
          "type": "bool"
        }
      ],
      "name": "ApprovalForAll",
      "type": "event"
    },
    {
      "anonymous": false,
      "inputs": [
        {
          "indexed": true,
          "internalType": "address",
          "name": "previousOwner",
          "type": "address"
        },
        {
          "indexed": true,
          "internalType": "address",
          "name": "newOwner",
          "type": "address"
        }
      ],
      "name": "OwnershipTransferred",
      "type": "event"
    },
    {
      "anonymous": false,
      "inputs": [
        {
          "indexed": true,
          "internalType": "address",
          "name": "from",
          "type": "address"
        },
        {
          "indexed": true,
          "internalType": "address",
          "name": "to",
          "type": "address"
        },
        {
          "indexed": true,
          "internalType": "uint256",
          "name": "tokenId",
          "type": "uint256"
        }
      ],
      "name": "Transfer",
      "type": "event"
    },
    {
      "inputs": [],
      "name": "COST_ONE",
      "outputs": [
        {
          "internalType": "uint256",
          "name": "",
          "type": "uint256"
        }
      ],
      "stateMutability": "view",
      "type": "function"
    },
    {
      "inputs": [],
      "name": "MAX_MINT",
      "outputs": [
        {
          "internalType": "uint256",
          "name": "",
          "type": "uint256"
        }
      ],
      "stateMutability": "view",
      "type": "function"
    },
    {
      "inputs": [],
      "name": "MAX_PRIVATE_SUPPLY",
      "outputs": [
        {
          "internalType": "uint256",
          "name": "",
          "type": "uint256"
        }
      ],
      "stateMutability": "view",
      "type": "function"
    },
    {
      "inputs": [],
      "name": "MAX_PUBLIC_SUPPLY",
      "outputs": [
        {
          "internalType": "uint256",
          "name": "",
          "type": "uint256"
        }
      ],
      "stateMutability": "view",
      "type": "function"
    },
    {
      "inputs": [],
      "name": "MAX_SUPPLY",
      "outputs": [
        {
          "internalType": "uint256",
          "name": "",
          "type": "uint256"
        }
      ],
      "stateMutability": "view",
      "type": "function"
    },
    {
      "inputs": [
        {
          "internalType": "address[]",
          "name": "addresses",
          "type": "address[]"
        }
      ],
      "name": "addToWhitelist",
      "outputs": [],
      "stateMutability": "nonpayable",
      "type": "function"
    },
    {
      "inputs": [
        {
          "internalType": "address",
          "name": "to",
          "type": "address"
        },
        {
          "internalType": "uint256",
          "name": "tokenId",
          "type": "uint256"
        }
      ],
      "name": "approve",
      "outputs": [],
      "stateMutability": "nonpayable",
      "type": "function"
    },
    {
      "inputs": [
        {
          "internalType": "address",
          "name": "owner",
          "type": "address"
        }
      ],
      "name": "balanceOf",
      "outputs": [
        {
          "internalType": "uint256",
          "name": "",
          "type": "uint256"
        }
      ],
      "stateMutability": "view",
      "type": "function"
    },
    {
      "inputs": [
        {
          "internalType": "address",
          "name": "owner",
          "type": "address"
        }
      ],
      "name": "claimedBy",
      "outputs": [
        {
          "internalType": "uint256",
          "name": "",
          "type": "uint256"
        }
      ],
      "stateMutability": "view",
      "type": "function"
    },
    {
      "inputs": [],
      "name": "contractURI",
      "outputs": [
        {
          "internalType": "string",
          "name": "",
          "type": "string"
        }
      ],
      "stateMutability": "view",
      "type": "function"
    },
    {
      "inputs": [
        {
          "internalType": "uint256",
          "name": "tokenId",
          "type": "uint256"
        }
      ],
      "name": "getApproved",
      "outputs": [
        {
          "internalType": "address",
          "name": "",
          "type": "address"
        }
      ],
      "stateMutability": "view",
      "type": "function"
    },
    {
      "inputs": [
        {
          "internalType": "uint256",
          "name": "num",
          "type": "uint256"
        }
      ],
      "name": "getCost",
      "outputs": [
        {
          "internalType": "uint256",
          "name": "",
          "type": "uint256"
        }
      ],
      "stateMutability": "pure",
      "type": "function"
    },
    {
      "inputs": [
        {
          "internalType": "address",
          "name": "to",
          "type": "address"
        },
        {
          "internalType": "uint256",
          "name": "num",
          "type": "uint256"
        }
      ],
      "name": "gift",
      "outputs": [],
      "stateMutability": "nonpayable",
      "type": "function"
    },
    {
      "inputs": [],
      "name": "isActive",
      "outputs": [
        {
          "internalType": "bool",
          "name": "",
          "type": "bool"
        }
      ],
      "stateMutability": "view",
      "type": "function"
    },
    {
      "inputs": [
        {
          "internalType": "address",
          "name": "owner",
          "type": "address"
        },
        {
          "internalType": "address",
          "name": "operator",
          "type": "address"
        }
      ],
      "name": "isApprovedForAll",
      "outputs": [
        {
          "internalType": "bool",
          "name": "",
          "type": "bool"
        }
      ],
      "stateMutability": "view",
      "type": "function"
    },
    {
      "inputs": [],
      "name": "isFreeActive",
      "outputs": [
        {
          "internalType": "bool",
          "name": "",
          "type": "bool"
        }
      ],
      "stateMutability": "view",
      "type": "function"
    },
    {
      "inputs": [
        {
          "internalType": "address",
          "name": "addr",
          "type": "address"
        }
      ],
      "name": "isOnWhitelist",
      "outputs": [
        {
          "internalType": "bool",
          "name": "",
          "type": "bool"
        }
      ],
      "stateMutability": "view",
      "type": "function"
    },
    {
      "inputs": [],
      "name": "isWhitelistActive",
      "outputs": [
        {
          "internalType": "bool",
          "name": "",
          "type": "bool"
        }
      ],
      "stateMutability": "view",
      "type": "function"
    },
    {
      "inputs": [
        {
          "internalType": "address",
          "name": "recipient",
          "type": "address"
        },
        {
          "internalType": "string",
          "name": "tokenURI",
          "type": "string"
        }
      ],
      "name": "mint",
      "outputs": [
        {
          "internalType": "uint256",
          "name": "",
          "type": "uint256"
        }
      ],
      "stateMutability": "payable",
      "type": "function"
    },
    {
      "inputs": [],
      "name": "name",
      "outputs": [
        {
          "internalType": "string",
          "name": "",
          "type": "string"
        }
      ],
      "stateMutability": "view",
      "type": "function"
    },
    {
      "inputs": [],
      "name": "owner",
      "outputs": [
        {
          "internalType": "address",
          "name": "",
          "type": "address"
        }
      ],
      "stateMutability": "view",
      "type": "function"
    },
    {
      "inputs": [
        {
          "internalType": "uint256",
          "name": "tokenId",
          "type": "uint256"
        }
      ],
      "name": "ownerOf",
      "outputs": [
        {
          "internalType": "address",
          "name": "",
          "type": "address"
        }
      ],
      "stateMutability": "view",
      "type": "function"
    },
    {
      "inputs": [
        {
          "internalType": "address[]",
          "name": "addresses",
          "type": "address[]"
        }
      ],
      "name": "removeFromWhitelist",
      "outputs": [],
      "stateMutability": "nonpayable",
      "type": "function"
    },
    {
      "inputs": [],
      "name": "renounceOwnership",
      "outputs": [],
      "stateMutability": "nonpayable",
      "type": "function"
    },
    {
      "inputs": [
        {
          "internalType": "address",
          "name": "from",
          "type": "address"
        },
        {
          "internalType": "address",
          "name": "to",
          "type": "address"
        },
        {
          "internalType": "uint256",
          "name": "tokenId",
          "type": "uint256"
        }
      ],
      "name": "safeTransferFrom",
      "outputs": [],
      "stateMutability": "nonpayable",
      "type": "function"
    },
    {
      "inputs": [
        {
          "internalType": "address",
          "name": "from",
          "type": "address"
        },
        {
          "internalType": "address",
          "name": "to",
          "type": "address"
        },
        {
          "internalType": "uint256",
          "name": "tokenId",
          "type": "uint256"
        },
        {
          "internalType": "bytes",
          "name": "_data",
          "type": "bytes"
        }
      ],
      "name": "safeTransferFrom",
      "outputs": [],
      "stateMutability": "nonpayable",
      "type": "function"
    },
    {
      "inputs": [
        {
          "internalType": "bool",
          "name": "val",
          "type": "bool"
        }
      ],
      "name": "setActive",
      "outputs": [],
      "stateMutability": "nonpayable",
      "type": "function"
    },
    {
      "inputs": [
        {
          "internalType": "address",
          "name": "operator",
          "type": "address"
        },
        {
          "internalType": "bool",
          "name": "approved",
          "type": "bool"
        }
      ],
      "name": "setApprovalForAll",
      "outputs": [],
      "stateMutability": "nonpayable",
      "type": "function"
    },
    {
      "inputs": [
        {
          "internalType": "string",
          "name": "val",
          "type": "string"
        }
      ],
      "name": "setBaseURI",
      "outputs": [],
      "stateMutability": "nonpayable",
      "type": "function"
    },
    {
      "inputs": [
        {
          "internalType": "string",
          "name": "contractURI_",
          "type": "string"
        }
      ],
      "name": "setContractURI",
      "outputs": [],
      "stateMutability": "nonpayable",
      "type": "function"
    },
    {
      "inputs": [
        {
          "internalType": "bool",
          "name": "val",
          "type": "bool"
        }
      ],
      "name": "setFreeActive",
      "outputs": [],
      "stateMutability": "nonpayable",
      "type": "function"
    },
    {
      "inputs": [
        {
          "internalType": "bool",
          "name": "val",
          "type": "bool"
        }
      ],
      "name": "setWhitelistActive",
      "outputs": [],
      "stateMutability": "nonpayable",
      "type": "function"
    },
    {
      "inputs": [
        {
          "internalType": "uint256",
          "name": "val",
          "type": "uint256"
        }
      ],
      "name": "setWhitelistMaxMint",
      "outputs": [],
      "stateMutability": "nonpayable",
      "type": "function"
    },
    {
      "inputs": [
        {
          "internalType": "uint256",
          "name": "val",
          "type": "uint256"
        }
      ],
      "name": "setWhitelistPrice",
      "outputs": [],
      "stateMutability": "nonpayable",
      "type": "function"
    },
    {
      "inputs": [
        {
          "internalType": "bytes4",
          "name": "interfaceId",
          "type": "bytes4"
        }
      ],
      "name": "supportsInterface",
      "outputs": [
        {
          "internalType": "bool",
          "name": "",
          "type": "bool"
        }
      ],
      "stateMutability": "view",
      "type": "function"
    },
    {
      "inputs": [],
      "name": "symbol",
      "outputs": [
        {
          "internalType": "string",
          "name": "",
          "type": "string"
        }
      ],
      "stateMutability": "view",
      "type": "function"
    },
    {
      "inputs": [
        {
          "internalType": "uint256",
          "name": "tokenId",
          "type": "uint256"
        }
      ],
      "name": "tokenURI",
      "outputs": [
        {
          "internalType": "string",
          "name": "",
          "type": "string"
        }
      ],
      "stateMutability": "view",
      "type": "function"
    },
    {
      "inputs": [],
      "name": "totalPrivateSupply",
      "outputs": [
        {
          "internalType": "uint256",
          "name": "",
          "type": "uint256"
        }
      ],
      "stateMutability": "view",
      "type": "function"
    },
    {
      "inputs": [],
      "name": "totalPublicSupply",
      "outputs": [
        {
          "internalType": "uint256",
          "name": "",
          "type": "uint256"
        }
      ],
      "stateMutability": "view",
      "type": "function"
    },
    {
      "inputs": [
        {
          "internalType": "address",
          "name": "from",
          "type": "address"
        },
        {
          "internalType": "address",
          "name": "to",
          "type": "address"
        },
        {
          "internalType": "uint256",
          "name": "tokenId",
          "type": "uint256"
        }
      ],
      "name": "transferFrom",
      "outputs": [],
      "stateMutability": "nonpayable",
      "type": "function"
    },
    {
      "inputs": [
        {
          "internalType": "address",
          "name": "newOwner",
          "type": "address"
        }
      ],
      "name": "transferOwnership",
      "outputs": [],
      "stateMutability": "nonpayable",
      "type": "function"
    },
    {
      "inputs": [
        {
          "internalType": "address",
          "name": "owner",
          "type": "address"
        }
      ],
      "name": "whitelistClaimedBy",
      "outputs": [
        {
          "internalType": "uint256",
          "name": "",
          "type": "uint256"
        }
      ],
      "stateMutability": "view",
      "type": "function"
    },
    {
      "inputs": [],
      "name": "whitelistCost",
      "outputs": [
        {
          "internalType": "uint256",
          "name": "",
          "type": "uint256"
        }
      ],
      "stateMutability": "view",
      "type": "function"
    },
    {
      "inputs": [],
      "name": "whitelistMaxMint",
      "outputs": [
        {
          "internalType": "uint256",
          "name": "",
          "type": "uint256"
        }
      ],
      "stateMutability": "view",
      "type": "function"
    },
    {
      "inputs": [
        {
          "internalType": "uint256",
          "name": "num",
          "type": "uint256"
        }
      ],
      "name": "whitelistMint",
      "outputs": [],
      "stateMutability": "payable",
      "type": "function"
    },
    {
      "inputs": [],
      "name": "withdraw",
      "outputs": [],
      "stateMutability": "payable",
      "type": "function"
    }
  ],
  "bytecode": "0x6080604052666a94d74f4300006009556001600a556000600b60006101000a81548160ff0219169083151502179055506000600b60016101000a81548160ff0219169083151502179055506000600b60026101000a81548160ff0219169083151502179055503480156200007257600080fd5b506040518060400160405280600b81526020017f5661706f72506c616e65730000000000000000000000000000000000000000008152506040518060400160405280600481526020017f56504c4e000000000000000000000000000000000000000000000000000000008152508160009080519060200190620000f792919062000207565b5080600190805190602001906200011092919062000207565b50505062000133620001276200013960201b60201c565b6200014160201b60201c565b6200031c565b600033905090565b6000600760009054906101000a900473ffffffffffffffffffffffffffffffffffffffff16905081600760006101000a81548173ffffffffffffffffffffffffffffffffffffffff021916908373ffffffffffffffffffffffffffffffffffffffff1602179055508173ffffffffffffffffffffffffffffffffffffffff168173ffffffffffffffffffffffffffffffffffffffff167f8be0079c531659141344cd1fd0a4f28419497f9722a3daafe3b4186f6b6457e060405160405180910390a35050565b8280546200021590620002b7565b90600052602060002090601f01602090048101928262000239576000855562000285565b82601f106200025457805160ff191683800117855562000285565b8280016001018555821562000285579182015b828111156200028457825182559160200191906001019062000267565b5b50905062000294919062000298565b5090565b5b80821115620002b357600081600090555060010162000299565b5090565b60006002820490506001821680620002d057607f821691505b60208210811415620002e757620002e6620002ed565b5b50919050565b7f4e487b7100000000000000000000000000000000000000000000000000000000600052602260045260246000fd5b614f15806200032c6000396000f3fe60806040526004361061027d5760003560e01c8063717d57d31161014f578063c3b754dc116100c1578063e6a5931e1161007a578063e6a5931e1461097f578063e7b99ec7146109aa578063e8a3d485146109d5578063e985e9c514610a00578063f0292a0314610a3d578063f2fde38b14610a685761027d565b8063c3b754dc1461086c578063c87b56dd14610895578063cbce4c97146108d2578063cc7eee1e146108fb578063d0def52114610926578063e2146963146109565761027d565b80638da5cb5b116101135780638da5cb5b14610772578063938e3d7b1461079d57806395d89b41146107c6578063a22cb465146107f1578063acec338a1461081a578063b88d4fde146108435761027d565b8063717d57d3146106b0578063722e141d146106d95780637f64978314610704578063868ff4a21461072d5780638aa9090a146107495761027d565b8063352567a2116101f357806355f804b3116101ac57806355f804b31461058e5780635a4dd47d146105b75780635b4c0a25146105f45780636352211e1461061f57806370a082311461065c578063715018a6146106995761027d565b8063352567a21461049f5780633a3ab672146104ca5780633ccfd60b1461050757806342842e0e14610511578063524513d61461053a578063548db174146105655761027d565b806322f3e2d41161024557806322f3e2d41461037b57806323b872dd146103a657806329998d4b146103cf5780632a47f7991461040c57806332cb6b0c14610437578063340ee37c146104625761027d565b806301ffc9a714610282578063053d6766146102bf57806306fdde03146102ea578063081812fc14610315578063095ea7b314610352575b600080fd5b34801561028e57600080fd5b506102a960048036038101906102a49190613a48565b610a91565b6040516102b69190614633565b60405180910390f35b3480156102cb57600080fd5b506102d4610b73565b6040516102e19190614a50565b60405180910390f35b3480156102f657600080fd5b506102ff610b79565b60405161030c919061464e565b60405180910390f35b34801561032157600080fd5b5061033c60048036038101906103379190613adb565b610c0b565b60405161034991906145cc565b60405180910390f35b34801561035e57600080fd5b506103796004803603810190610374919061399e565b610c90565b005b34801561038757600080fd5b50610390610da8565b60405161039d9190614633565b60405180910390f35b3480156103b257600080fd5b506103cd60048036038101906103c89190613844565b610dbb565b005b3480156103db57600080fd5b506103f660048036038101906103f191906137df565b610e1b565b6040516104039190614a50565b60405180910390f35b34801561041857600080fd5b50610421610ed3565b60405161042e9190614a50565b60405180910390f35b34801561044357600080fd5b5061044c610ed8565b6040516104599190614a50565b60405180910390f35b34801561046e57600080fd5b50610489600480360381019061048491906137df565b610eea565b6040516104969190614a50565b60405180910390f35b3480156104ab57600080fd5b506104b4610fa2565b6040516104c19190614a50565b60405180910390f35b3480156104d657600080fd5b506104f160048036038101906104ec91906137df565b610fa8565b6040516104fe9190614633565b60405180910390f35b61050f610ffe565b005b34801561051d57600080fd5b5061053860048036038101906105339190613844565b611162565b005b34801561054657600080fd5b5061054f611182565b60405161055c9190614633565b60405180910390f35b34801561057157600080fd5b5061058c600480360381019061058791906139da565b611195565b005b34801561059a57600080fd5b506105b560048036038101906105b09190613a9a565b611399565b005b3480156105c357600080fd5b506105de60048036038101906105d99190613adb565b61142f565b6040516105eb9190614a50565b60405180910390f35b34801561060057600080fd5b5061060961144b565b6040516106169190614a50565b60405180910390f35b34801561062b57600080fd5b5061064660048036038101906106419190613adb565b611456565b60405161065391906145cc565b60405180910390f35b34801561066857600080fd5b50610683600480360381019061067e91906137df565b611508565b6040516106909190614a50565b60405180910390f35b3480156106a557600080fd5b506106ae6115c0565b005b3480156106bc57600080fd5b506106d760048036038101906106d29190613adb565b611648565b005b3480156106e557600080fd5b506106ee6116ce565b6040516106fb9190614a50565b60405180910390f35b34801561071057600080fd5b5061072b600480360381019061072691906139da565b6116d4565b005b61074760048036038101906107429190613adb565b61181b565b005b34801561075557600080fd5b50610770600480360381019061076b9190613a1f565b611bd6565b005b34801561077e57600080fd5b50610787611c6f565b60405161079491906145cc565b60405180910390f35b3480156107a957600080fd5b506107c460048036038101906107bf9190613a9a565b611c99565b005b3480156107d257600080fd5b506107db611d2f565b6040516107e8919061464e565b60405180910390f35b3480156107fd57600080fd5b506108186004803603810190610813919061390e565b611dc1565b005b34801561082657600080fd5b50610841600480360381019061083c9190613a1f565b611f42565b005b34801561084f57600080fd5b5061086a60048036038101906108659190613893565b61202d565b005b34801561087857600080fd5b50610893600480360381019061088e9190613a1f565b61208f565b005b3480156108a157600080fd5b506108bc60048036038101906108b79190613adb565b612128565b6040516108c9919061464e565b60405180910390f35b3480156108de57600080fd5b506108f960048036038101906108f4919061399e565b61227a565b005b34801561090757600080fd5b506109106123fa565b60405161091d9190614633565b60405180910390f35b610940600480360381019061093b919061394a565b61240d565b60405161094d9190614a50565b60405180910390f35b34801561096257600080fd5b5061097d60048036038101906109789190613adb565b61259d565b005b34801561098b57600080fd5b50610994612623565b6040516109a19190614a50565b60405180910390f35b3480156109b657600080fd5b506109bf612629565b6040516109cc9190614a50565b60405180910390f35b3480156109e157600080fd5b506109ea61262f565b6040516109f7919061464e565b60405180910390f35b348015610a0c57600080fd5b50610a276004803603810190610a229190613808565b6126c1565b604051610a349190614633565b60405180910390f35b348015610a4957600080fd5b50610a52612755565b604051610a5f9190614a50565b60405180910390f35b348015610a7457600080fd5b50610a8f6004803603810190610a8a91906137df565b61275a565b005b60007f80ac58cd000000000000000000000000000000000000000000000000000000007bffffffffffffffffffffffffffffffffffffffffffffffffffffffff1916827bffffffffffffffffffffffffffffffffffffffffffffffffffffffff19161480610b5c57507f5b5e139f000000000000000000000000000000000000000000000000000000007bffffffffffffffffffffffffffffffffffffffffffffffffffffffff1916827bffffffffffffffffffffffffffffffffffffffffffffffffffffffff1916145b80610b6c5750610b6b82612852565b5b9050919050565b600c5481565b606060008054610b8890614d0a565b80601f0160208091040260200160405190810160405280929190818152602001828054610bb490614d0a565b8015610c015780601f10610bd657610100808354040283529160200191610c01565b820191906000526020600020905b815481529060010190602001808311610be457829003601f168201915b5050505050905090565b6000610c16826128bc565b610c55576040517f08c379a0000000000000000000000000000000000000000000000000000000008152600401610c4c90614970565b60405180910390fd5b6004600083815260200190815260200160002060009054906101000a900473ffffffffffffffffffffffffffffffffffffffff169050919050565b6000610c9b82611456565b90508073ffffffffffffffffffffffffffffffffffffffff168373ffffffffffffffffffffffffffffffffffffffff161415610d0c576040517f08c379a0000000000000000000000000000000000000000000000000000000008152600401610d03906149f0565b60405180910390fd5b8073ffffffffffffffffffffffffffffffffffffffff16610d2b612928565b73ffffffffffffffffffffffffffffffffffffffff161480610d5a5750610d5981610d54612928565b6126c1565b5b610d99576040517f08c379a0000000000000000000000000000000000000000000000000000000008152600401610d9090614850565b60405180910390fd5b610da38383612930565b505050565b600b60009054906101000a900460ff1681565b610dcc610dc6612928565b826129e9565b610e0b576040517f08c379a0000000000000000000000000000000000000000000000000000000008152600401610e0290614a10565b60405180910390fd5b610e16838383612ac7565b505050565b60008073ffffffffffffffffffffffffffffffffffffffff168273ffffffffffffffffffffffffffffffffffffffff161415610e8c576040517f08c379a0000000000000000000000000000000000000000000000000000000008152600401610e8390614670565b60405180910390fd5b601060008373ffffffffffffffffffffffffffffffffffffffff1673ffffffffffffffffffffffffffffffffffffffff168152602001908152602001600020549050919050565b606481565b6064610384610ee79190614b3f565b81565b60008073ffffffffffffffffffffffffffffffffffffffff168273ffffffffffffffffffffffffffffffffffffffff161415610f5b576040517f08c379a0000000000000000000000000000000000000000000000000000000008152600401610f5290614670565b60405180910390fd5b601260008373ffffffffffffffffffffffffffffffffffffffff1673ffffffffffffffffffffffffffffffffffffffff168152602001908152602001600020549050919050565b61038481565b6000601160008373ffffffffffffffffffffffffffffffffffffffff1673ffffffffffffffffffffffffffffffffffffffff16815260200190815260200160002060009054906101000a900460ff169050919050565b611006612928565b73ffffffffffffffffffffffffffffffffffffffff16611024611c6f565b73ffffffffffffffffffffffffffffffffffffffff161461107a576040517f08c379a000000000000000000000000000000000000000000000000000000000815260040161107190614990565b60405180910390fd5b600047905060006064604b836110909190614bc6565b61109a9190614b95565b9050600060646019846110ad9190614bc6565b6110b79190614b95565b905073a60ca66a56de913edbb829ae503d4320f1c26ce273ffffffffffffffffffffffffffffffffffffffff166108fc839081150290604051600060405180830381858888f1935050505061110b57600080fd5b73a2529513fa09da493e2ca9e876f4f791780ba4a373ffffffffffffffffffffffffffffffffffffffff166108fc829081150290604051600060405180830381858888f1935050505061115d57600080fd5b505050565b61117d8383836040518060200160405280600081525061202d565b505050565b600b60029054906101000a900460ff1681565b61119d612928565b73ffffffffffffffffffffffffffffffffffffffff166111bb611c6f565b73ffffffffffffffffffffffffffffffffffffffff1614611211576040517f08c379a000000000000000000000000000000000000000000000000000000000815260040161120890614990565b60405180910390fd5b60005b8282905081101561139457600073ffffffffffffffffffffffffffffffffffffffff16838383818110611270577f4e487b7100000000000000000000000000000000000000000000000000000000600052603260045260246000fd5b905060200201602081019061128591906137df565b73ffffffffffffffffffffffffffffffffffffffff1614156112dc576040517f08c379a00000000000000000000000000000000000000000000000000000000081526004016112d390614690565b60405180910390fd5b60006011600085858581811061131b577f4e487b7100000000000000000000000000000000000000000000000000000000600052603260045260246000fd5b905060200201602081019061133091906137df565b73ffffffffffffffffffffffffffffffffffffffff1673ffffffffffffffffffffffffffffffffffffffff16815260200190815260200160002060006101000a81548160ff021916908315150217905550808061138c90614d3c565b915050611214565b505050565b6113a1612928565b73ffffffffffffffffffffffffffffffffffffffff166113bf611c6f565b73ffffffffffffffffffffffffffffffffffffffff1614611415576040517f08c379a000000000000000000000000000000000000000000000000000000000815260040161140c90614990565b60405180910390fd5b80600f908051906020019061142b9291906135b9565b5050565b60008166b1a2bc2ec500006114449190614bc6565b9050919050565b66b1a2bc2ec5000081565b6000806002600084815260200190815260200160002060009054906101000a900473ffffffffffffffffffffffffffffffffffffffff169050600073ffffffffffffffffffffffffffffffffffffffff168173ffffffffffffffffffffffffffffffffffffffff1614156114ff576040517f08c379a00000000000000000000000000000000000000000000000000000000081526004016114f690614890565b60405180910390fd5b80915050919050565b60008073ffffffffffffffffffffffffffffffffffffffff168273ffffffffffffffffffffffffffffffffffffffff161415611579576040517f08c379a000000000000000000000000000000000000000000000000000000000815260040161157090614870565b60405180910390fd5b600360008373ffffffffffffffffffffffffffffffffffffffff1673ffffffffffffffffffffffffffffffffffffffff168152602001908152602001600020549050919050565b6115c8612928565b73ffffffffffffffffffffffffffffffffffffffff166115e6611c6f565b73ffffffffffffffffffffffffffffffffffffffff161461163c576040517f08c379a000000000000000000000000000000000000000000000000000000000815260040161163390614990565b60405180910390fd5b6116466000612d23565b565b611650612928565b73ffffffffffffffffffffffffffffffffffffffff1661166e611c6f565b73ffffffffffffffffffffffffffffffffffffffff16146116c4576040517f08c379a00000000000000000000000000000000000000000000000000000000081526004016116bb90614990565b60405180910390fd5b8060098190555050565b600a5481565b6116dc612928565b73ffffffffffffffffffffffffffffffffffffffff166116fa611c6f565b73ffffffffffffffffffffffffffffffffffffffff1614611750576040517f08c379a000000000000000000000000000000000000000000000000000000000815260040161174790614990565b60405180910390fd5b60005b828290508110156118165760016011600085858581811061179d577f4e487b7100000000000000000000000000000000000000000000000000000000600052603260045260246000fd5b90506020020160208101906117b291906137df565b73ffffffffffffffffffffffffffffffffffffffff1673ffffffffffffffffffffffffffffffffffffffff16815260200190815260200160002060006101000a81548160ff021916908315150217905550808061180e90614d3c565b915050611753565b505050565b600b60029054906101000a900460ff1661186a576040517f08c379a0000000000000000000000000000000000000000000000000000000008152600401611861906146d0565b60405180910390fd5b601160003373ffffffffffffffffffffffffffffffffffffffff1673ffffffffffffffffffffffffffffffffffffffff16815260200190815260200160002060009054906101000a900460ff166118f6576040517f08c379a00000000000000000000000000000000000000000000000000000000081526004016118ed90614910565b60405180910390fd5b6001600a546119059190614b3f565b8110611946576040517f08c379a000000000000000000000000000000000000000000000000000000000815260040161193d906146f0565b60405180910390fd5b6001600a546119559190614b3f565b81601260003373ffffffffffffffffffffffffffffffffffffffff1673ffffffffffffffffffffffffffffffffffffffff168152602001908152602001600020546119a09190614b3f565b106119e0576040517f08c379a00000000000000000000000000000000000000000000000000000000081526004016119d790614790565b60405180910390fd5b60646103846119ef9190614b3f565b600d5410611a32576040517f08c379a0000000000000000000000000000000000000000000000000000000008152600401611a2990614750565b60405180910390fd5b6064600d5410611a77576040517f08c379a0000000000000000000000000000000000000000000000000000000008152600401611a6e906147f0565b60405180910390fd5b3481600954611a869190614bc6565b1115611ac7576040517f08c379a0000000000000000000000000000000000000000000000000000000008152600401611abe906148f0565b60405180910390fd5b60005b81811015611bd2576001600d6000828254611ae59190614b3f565b9250508190555060006009541415611b4f576001601060003373ffffffffffffffffffffffffffffffffffffffff1673ffffffffffffffffffffffffffffffffffffffff1681526020019081526020016000206000828254611b479190614b3f565b925050819055505b6001601260003373ffffffffffffffffffffffffffffffffffffffff1673ffffffffffffffffffffffffffffffffffffffff1681526020019081526020016000206000828254611b9f9190614b3f565b92505081905550611bbf33600d54610384611bba9190614b3f565b612de9565b8080611bca90614d3c565b915050611aca565b5050565b611bde612928565b73ffffffffffffffffffffffffffffffffffffffff16611bfc611c6f565b73ffffffffffffffffffffffffffffffffffffffff1614611c52576040517f08c379a0000000000000000000000000000000000000000000000000000000008152600401611c4990614990565b60405180910390fd5b80600b60016101000a81548160ff02191690831515021790555050565b6000600760009054906101000a900473ffffffffffffffffffffffffffffffffffffffff16905090565b611ca1612928565b73ffffffffffffffffffffffffffffffffffffffff16611cbf611c6f565b73ffffffffffffffffffffffffffffffffffffffff1614611d15576040517f08c379a0000000000000000000000000000000000000000000000000000000008152600401611d0c90614990565b60405180910390fd5b80600e9080519060200190611d2b9291906135b9565b5050565b606060018054611d3e90614d0a565b80601f0160208091040260200160405190810160405280929190818152602001828054611d6a90614d0a565b8015611db75780601f10611d8c57610100808354040283529160200191611db7565b820191906000526020600020905b815481529060010190602001808311611d9a57829003601f168201915b5050505050905090565b611dc9612928565b73ffffffffffffffffffffffffffffffffffffffff168273ffffffffffffffffffffffffffffffffffffffff161415611e37576040517f08c379a0000000000000000000000000000000000000000000000000000000008152600401611e2e906147d0565b60405180910390fd5b8060056000611e44612928565b73ffffffffffffffffffffffffffffffffffffffff1673ffffffffffffffffffffffffffffffffffffffff16815260200190815260200160002060008473ffffffffffffffffffffffffffffffffffffffff1673ffffffffffffffffffffffffffffffffffffffff16815260200190815260200160002060006101000a81548160ff0219169083151502179055508173ffffffffffffffffffffffffffffffffffffffff16611ef1612928565b73ffffffffffffffffffffffffffffffffffffffff167f17307eab39ab6107e8899845ad3d59bd9653f200f220920489ca2b5937696c3183604051611f369190614633565b60405180910390a35050565b611f4a612928565b73ffffffffffffffffffffffffffffffffffffffff16611f68611c6f565b73ffffffffffffffffffffffffffffffffffffffff1614611fbe576040517f08c379a0000000000000000000000000000000000000000000000000000000008152600401611fb590614990565b60405180910390fd5b6000600f8054611fcd90614d0a565b90501415612010576040517f08c379a0000000000000000000000000000000000000000000000000000000008152600401612007906146b0565b60405180910390fd5b80600b60006101000a81548160ff02191690831515021790555050565b61203e612038612928565b836129e9565b61207d576040517f08c379a000000000000000000000000000000000000000000000000000000000815260040161207490614a10565b60405180910390fd5b61208984848484612e07565b50505050565b612097612928565b73ffffffffffffffffffffffffffffffffffffffff166120b5611c6f565b73ffffffffffffffffffffffffffffffffffffffff161461210b576040517f08c379a000000000000000000000000000000000000000000000000000000000815260040161210290614990565b60405180910390fd5b80600b60026101000a81548160ff02191690831515021790555050565b6060612133826128bc565b612172576040517f08c379a000000000000000000000000000000000000000000000000000000000815260040161216990614950565b60405180910390fd5b600060066000848152602001908152602001600020805461219290614d0a565b80601f01602080910402602001604051908101604052809291908181526020018280546121be90614d0a565b801561220b5780601f106121e05761010080835404028352916020019161220b565b820191906000526020600020905b8154815290600101906020018083116121ee57829003601f168201915b50505050509050600061221c612e63565b9050600081511415612232578192505050612275565b60008251111561226757808260405160200161224f9291906145a8565b60405160208183030381529060405292505050612275565b61227084612ef5565b925050505b919050565b612282612928565b73ffffffffffffffffffffffffffffffffffffffff166122a0611c6f565b73ffffffffffffffffffffffffffffffffffffffff16146122f6576040517f08c379a00000000000000000000000000000000000000000000000000000000081526004016122ed90614990565b60405180910390fd5b600160646103846123079190614b3f565b6123119190614b3f565b600d5410612354576040517f08c379a000000000000000000000000000000000000000000000000000000000815260040161234b90614750565b60405180910390fd5b60016103846123639190614b3f565b81600c546123719190614b3f565b106123b1576040517f08c379a00000000000000000000000000000000000000000000000000000000081526004016123a8906148d0565b60405180910390fd5b60005b818110156123f5576001600c60008282546123cf9190614b3f565b925050819055506123e283600c54612de9565b80806123ed90614d3c565b9150506123b4565b505050565b600b60019054906101000a900460ff1681565b6000600b60009054906101000a900460ff1661245e576040517f08c379a000000000000000000000000000000000000000000000000000000000815260040161245590614830565b60405180910390fd5b606461038461246d9190614b3f565b600d54106124b0576040517f08c379a00000000000000000000000000000000000000000000000000000000081526004016124a790614750565b60405180910390fd5b6064600d54106124f5576040517f08c379a00000000000000000000000000000000000000000000000000000000081526004016124ec906147f0565b60405180910390fd5b6124ff600161142f565b341015612541576040517f08c379a000000000000000000000000000000000000000000000000000000000815260040161253890614a30565b60405180910390fd5b61254b6008612f9c565b60006125576008612fb2565b90506064600d541015612593576001600d60008282546125779190614b3f565b925050819055506125888482612fc0565b612592818461318e565b5b8091505092915050565b6125a5612928565b73ffffffffffffffffffffffffffffffffffffffff166125c3611c6f565b73ffffffffffffffffffffffffffffffffffffffff1614612619576040517f08c379a000000000000000000000000000000000000000000000000000000000815260040161261090614990565b60405180910390fd5b80600a8190555050565b600d5481565b60095481565b6060600e805461263e90614d0a565b80601f016020809104026020016040519081016040528092919081815260200182805461266a90614d0a565b80156126b75780601f1061268c576101008083540402835291602001916126b7565b820191906000526020600020905b81548152906001019060200180831161269a57829003601f168201915b5050505050905090565b6000600560008473ffffffffffffffffffffffffffffffffffffffff1673ffffffffffffffffffffffffffffffffffffffff16815260200190815260200160002060008373ffffffffffffffffffffffffffffffffffffffff1673ffffffffffffffffffffffffffffffffffffffff16815260200190815260200160002060009054906101000a900460ff16905092915050565b600181565b612762612928565b73ffffffffffffffffffffffffffffffffffffffff16612780611c6f565b73ffffffffffffffffffffffffffffffffffffffff16146127d6576040517f08c379a00000000000000000000000000000000000000000000000000000000081526004016127cd90614990565b60405180910390fd5b600073ffffffffffffffffffffffffffffffffffffffff168173ffffffffffffffffffffffffffffffffffffffff161415612846576040517f08c379a000000000000000000000000000000000000000000000000000000000815260040161283d90614730565b60405180910390fd5b61284f81612d23565b50565b60007f01ffc9a7000000000000000000000000000000000000000000000000000000007bffffffffffffffffffffffffffffffffffffffffffffffffffffffff1916827bffffffffffffffffffffffffffffffffffffffffffffffffffffffff1916149050919050565b60008073ffffffffffffffffffffffffffffffffffffffff166002600084815260200190815260200160002060009054906101000a900473ffffffffffffffffffffffffffffffffffffffff1673ffffffffffffffffffffffffffffffffffffffff1614159050919050565b600033905090565b816004600083815260200190815260200160002060006101000a81548173ffffffffffffffffffffffffffffffffffffffff021916908373ffffffffffffffffffffffffffffffffffffffff160217905550808273ffffffffffffffffffffffffffffffffffffffff166129a383611456565b73ffffffffffffffffffffffffffffffffffffffff167f8c5be1e5ebec7d5bd14f71427d1e84f3dd0314c0f7b2291e5b200ac8c7c3b92560405160405180910390a45050565b60006129f4826128bc565b612a33576040517f08c379a0000000000000000000000000000000000000000000000000000000008152600401612a2a90614810565b60405180910390fd5b6000612a3e83611456565b90508073ffffffffffffffffffffffffffffffffffffffff168473ffffffffffffffffffffffffffffffffffffffff161480612aad57508373ffffffffffffffffffffffffffffffffffffffff16612a9584610c0b565b73ffffffffffffffffffffffffffffffffffffffff16145b80612abe5750612abd81856126c1565b5b91505092915050565b8273ffffffffffffffffffffffffffffffffffffffff16612ae782611456565b73ffffffffffffffffffffffffffffffffffffffff1614612b3d576040517f08c379a0000000000000000000000000000000000000000000000000000000008152600401612b34906149b0565b60405180910390fd5b600073ffffffffffffffffffffffffffffffffffffffff168273ffffffffffffffffffffffffffffffffffffffff161415612bad576040517f08c379a0000000000000000000000000000000000000000000000000000000008152600401612ba4906147b0565b60405180910390fd5b612bb8838383613202565b612bc3600082612930565b6001600360008573ffffffffffffffffffffffffffffffffffffffff1673ffffffffffffffffffffffffffffffffffffffff1681526020019081526020016000206000828254612c139190614c20565b925050819055506001600360008473ffffffffffffffffffffffffffffffffffffffff1673ffffffffffffffffffffffffffffffffffffffff1681526020019081526020016000206000828254612c6a9190614b3f565b92505081905550816002600083815260200190815260200160002060006101000a81548173ffffffffffffffffffffffffffffffffffffffff021916908373ffffffffffffffffffffffffffffffffffffffff160217905550808273ffffffffffffffffffffffffffffffffffffffff168473ffffffffffffffffffffffffffffffffffffffff167fddf252ad1be2c89b69c2b068fc378daa952ba7f163c4a11628f55a4df523b3ef60405160405180910390a4505050565b6000600760009054906101000a900473ffffffffffffffffffffffffffffffffffffffff16905081600760006101000a81548173ffffffffffffffffffffffffffffffffffffffff021916908373ffffffffffffffffffffffffffffffffffffffff1602179055508173ffffffffffffffffffffffffffffffffffffffff168173ffffffffffffffffffffffffffffffffffffffff167f8be0079c531659141344cd1fd0a4f28419497f9722a3daafe3b4186f6b6457e060405160405180910390a35050565b612e03828260405180602001604052806000815250613207565b5050565b612e12848484612ac7565b612e1e84848484613262565b612e5d576040517f08c379a0000000000000000000000000000000000000000000000000000000008152600401612e5490614710565b60405180910390fd5b50505050565b6060600f8054612e7290614d0a565b80601f0160208091040260200160405190810160405280929190818152602001828054612e9e90614d0a565b8015612eeb5780601f10612ec057610100808354040283529160200191612eeb565b820191906000526020600020905b815481529060010190602001808311612ece57829003601f168201915b5050505050905090565b6060612f00826128bc565b612f3f576040517f08c379a0000000000000000000000000000000000000000000000000000000008152600401612f36906149d0565b60405180910390fd5b6000612f49612e63565b90506000815111612f695760405180602001604052806000815250612f94565b80612f73846133f9565b604051602001612f849291906145a8565b6040516020818303038152906040525b915050919050565b6001816000016000828254019250508190555050565b600081600001549050919050565b600073ffffffffffffffffffffffffffffffffffffffff168273ffffffffffffffffffffffffffffffffffffffff161415613030576040517f08c379a000000000000000000000000000000000000000000000000000000000815260040161302790614930565b60405180910390fd5b613039816128bc565b15613079576040517f08c379a000000000000000000000000000000000000000000000000000000000815260040161307090614770565b60405180910390fd5b61308560008383613202565b6001600360008473ffffffffffffffffffffffffffffffffffffffff1673ffffffffffffffffffffffffffffffffffffffff16815260200190815260200160002060008282546130d59190614b3f565b92505081905550816002600083815260200190815260200160002060006101000a81548173ffffffffffffffffffffffffffffffffffffffff021916908373ffffffffffffffffffffffffffffffffffffffff160217905550808273ffffffffffffffffffffffffffffffffffffffff16600073ffffffffffffffffffffffffffffffffffffffff167fddf252ad1be2c89b69c2b068fc378daa952ba7f163c4a11628f55a4df523b3ef60405160405180910390a45050565b613197826128bc565b6131d6576040517f08c379a00000000000000000000000000000000000000000000000000000000081526004016131cd906148b0565b60405180910390fd5b806006600084815260200190815260200160002090805190602001906131fd9291906135b9565b505050565b505050565b6132118383612fc0565b61321e6000848484613262565b61325d576040517f08c379a000000000000000000000000000000000000000000000000000000000815260040161325490614710565b60405180910390fd5b505050565b60006132838473ffffffffffffffffffffffffffffffffffffffff166135a6565b156133ec578373ffffffffffffffffffffffffffffffffffffffff1663150b7a026132ac612928565b8786866040518563ffffffff1660e01b81526004016132ce94939291906145e7565b602060405180830381600087803b1580156132e857600080fd5b505af192505050801561331957506040513d601f19601f820116820180604052508101906133169190613a71565b60015b61339c573d8060008114613349576040519150601f19603f3d011682016040523d82523d6000602084013e61334e565b606091505b50600081511415613394576040517f08c379a000000000000000000000000000000000000000000000000000000000815260040161338b90614710565b60405180910390fd5b805181602001fd5b63150b7a0260e01b7bffffffffffffffffffffffffffffffffffffffffffffffffffffffff1916817bffffffffffffffffffffffffffffffffffffffffffffffffffffffff1916149150506133f1565b600190505b949350505050565b60606000821415613441576040518060400160405280600181526020017f300000000000000000000000000000000000000000000000000000000000000081525090506135a1565b600082905060005b6000821461347357808061345c90614d3c565b915050600a8261346c9190614b95565b9150613449565b60008167ffffffffffffffff8111156134b5577f4e487b7100000000000000000000000000000000000000000000000000000000600052604160045260246000fd5b6040519080825280601f01601f1916602001820160405280156134e75781602001600182028036833780820191505090505b5090505b6000851461359a576001826135009190614c20565b9150600a8561350f9190614d85565b603061351b9190614b3f565b60f81b818381518110613557577f4e487b7100000000000000000000000000000000000000000000000000000000600052603260045260246000fd5b60200101907effffffffffffffffffffffffffffffffffffffffffffffffffffffffffffff1916908160001a905350600a856135939190614b95565b94506134eb565b8093505050505b919050565b600080823b905060008111915050919050565b8280546135c590614d0a565b90600052602060002090601f0160209004810192826135e7576000855561362e565b82601f1061360057805160ff191683800117855561362e565b8280016001018555821561362e579182015b8281111561362d578251825591602001919060010190613612565b5b50905061363b919061363f565b5090565b5b80821115613658576000816000905550600101613640565b5090565b600061366f61366a84614a9c565b614a6b565b90508281526020810184848401111561368757600080fd5b613692848285614cc8565b509392505050565b60006136ad6136a884614acc565b614a6b565b9050828152602081018484840111156136c557600080fd5b6136d0848285614cc8565b509392505050565b6000813590506136e781614e83565b92915050565b60008083601f8401126136ff57600080fd5b8235905067ffffffffffffffff81111561371857600080fd5b60208301915083602082028301111561373057600080fd5b9250929050565b60008135905061374681614e9a565b92915050565b60008135905061375b81614eb1565b92915050565b60008151905061377081614eb1565b92915050565b600082601f83011261378757600080fd5b813561379784826020860161365c565b91505092915050565b600082601f8301126137b157600080fd5b81356137c184826020860161369a565b91505092915050565b6000813590506137d981614ec8565b92915050565b6000602082840312156137f157600080fd5b60006137ff848285016136d8565b91505092915050565b6000806040838503121561381b57600080fd5b6000613829858286016136d8565b925050602061383a858286016136d8565b9150509250929050565b60008060006060848603121561385957600080fd5b6000613867868287016136d8565b9350506020613878868287016136d8565b9250506040613889868287016137ca565b9150509250925092565b600080600080608085870312156138a957600080fd5b60006138b7878288016136d8565b94505060206138c8878288016136d8565b93505060406138d9878288016137ca565b925050606085013567ffffffffffffffff8111156138f657600080fd5b61390287828801613776565b91505092959194509250565b6000806040838503121561392157600080fd5b600061392f858286016136d8565b925050602061394085828601613737565b9150509250929050565b6000806040838503121561395d57600080fd5b600061396b858286016136d8565b925050602083013567ffffffffffffffff81111561398857600080fd5b613994858286016137a0565b9150509250929050565b600080604083850312156139b157600080fd5b60006139bf858286016136d8565b92505060206139d0858286016137ca565b9150509250929050565b600080602083850312156139ed57600080fd5b600083013567ffffffffffffffff811115613a0757600080fd5b613a13858286016136ed565b92509250509250929050565b600060208284031215613a3157600080fd5b6000613a3f84828501613737565b91505092915050565b600060208284031215613a5a57600080fd5b6000613a688482850161374c565b91505092915050565b600060208284031215613a8357600080fd5b6000613a9184828501613761565b91505092915050565b600060208284031215613aac57600080fd5b600082013567ffffffffffffffff811115613ac657600080fd5b613ad2848285016137a0565b91505092915050565b600060208284031215613aed57600080fd5b6000613afb848285016137ca565b91505092915050565b613b0d81614c54565b82525050565b613b1c81614c66565b82525050565b6000613b2d82614afc565b613b378185614b12565b9350613b47818560208601614cd7565b613b5081614e72565b840191505092915050565b6000613b6682614b07565b613b708185614b23565b9350613b80818560208601614cd7565b613b8981614e72565b840191505092915050565b6000613b9f82614b07565b613ba98185614b34565b9350613bb9818560208601614cd7565b80840191505092915050565b6000613bd2601a83614b23565b91507f5a65726f2061646472657373206e6f7420636c61696d61626c650000000000006000830152602082019050919050565b6000613c12601d83614b23565b91507f43616e27742072656d6f766520746865206e756c6c20616464726573730000006000830152602082019050919050565b6000613c52601e83614b23565b91507f536574204261736520555249206265666f72652061637469766174696e6700006000830152602082019050919050565b6000613c92601783614b23565b91507f57686974656c697374206973206e6f74206163746976650000000000000000006000830152602082019050919050565b6000613cd2600e83614b23565b91507f4f766572206d6178206c696d69740000000000000000000000000000000000006000830152602082019050919050565b6000613d12603283614b23565b91507f4552433732313a207472616e7366657220746f206e6f6e20455243373231526560008301527f63656976657220696d706c656d656e74657200000000000000000000000000006020830152604082019050919050565b6000613d78602683614b23565b91507f4f776e61626c653a206e6577206f776e657220697320746865207a65726f206160008301527f64647265737300000000000000000000000000000000000000000000000000006020830152604082019050919050565b6000613dde601183614b23565b91507f416c6c20746f6b656e73206d696e7465640000000000000000000000000000006000830152602082019050919050565b6000613e1e601c83614b23565b91507f4552433732313a20746f6b656e20616c7265616479206d696e746564000000006000830152602082019050919050565b6000613e5e602083614b23565b91507f57686974656c69737420746f6b656e7320616c726561647920636c61696d65646000830152602082019050919050565b6000613e9e602483614b23565b91507f4552433732313a207472616e7366657220746f20746865207a65726f2061646460008301527f72657373000000000000000000000000000000000000000000000000000000006020830152604082019050919050565b6000613f04601983614b23565b91507f4552433732313a20617070726f766520746f2063616c6c6572000000000000006000830152602082019050919050565b6000613f44601583614b23565b91507f4f766572206d6178207075626c6963206c696d697400000000000000000000006000830152602082019050919050565b6000613f84602c83614b23565b91507f4552433732313a206f70657261746f7220717565727920666f72206e6f6e657860008301527f697374656e7420746f6b656e00000000000000000000000000000000000000006020830152604082019050919050565b6000613fea601483614b23565b91507f436f6e747261637420697320696e6163746976650000000000000000000000006000830152602082019050919050565b600061402a603883614b23565b91507f4552433732313a20617070726f76652063616c6c6572206973206e6f74206f7760008301527f6e6572206e6f7220617070726f76656420666f7220616c6c00000000000000006020830152604082019050919050565b6000614090602a83614b23565b91507f4552433732313a2062616c616e636520717565727920666f7220746865207a6560008301527f726f2061646472657373000000000000000000000000000000000000000000006020830152604082019050919050565b60006140f6602983614b23565b91507f4552433732313a206f776e657220717565727920666f72206e6f6e657869737460008301527f656e7420746f6b656e00000000000000000000000000000000000000000000006020830152604082019050919050565b600061415c602e83614b23565b91507f45524337323155524953746f726167653a2055524920736574206f66206e6f6e60008301527f6578697374656e7420746f6b656e0000000000000000000000000000000000006020830152604082019050919050565b60006141c2601683614b23565b91507f45786365656473207072697661746520737570706c79000000000000000000006000830152602082019050919050565b6000614202601983614b23565b91507f45544820616d6f756e74206973206e6f7420636f7272656374000000000000006000830152602082019050919050565b6000614242601c83614b23565b91507f596f7520617265206e6f74206f6e207468652057686974656c697374000000006000830152602082019050919050565b6000614282602083614b23565b91507f4552433732313a206d696e7420746f20746865207a65726f20616464726573736000830152602082019050919050565b60006142c2603183614b23565b91507f45524337323155524953746f726167653a2055524920717565727920666f722060008301527f6e6f6e6578697374656e7420746f6b656e0000000000000000000000000000006020830152604082019050919050565b6000614328602c83614b23565b91507f4552433732313a20617070726f76656420717565727920666f72206e6f6e657860008301527f697374656e7420746f6b656e00000000000000000000000000000000000000006020830152604082019050919050565b600061438e602083614b23565b91507f4f776e61626c653a2063616c6c6572206973206e6f7420746865206f776e65726000830152602082019050919050565b60006143ce602983614b23565b91507f4552433732313a207472616e73666572206f6620746f6b656e2074686174206960008301527f73206e6f74206f776e00000000000000000000000000000000000000000000006020830152604082019050919050565b6000614434602f83614b23565b91507f4552433732314d657461646174613a2055524920717565727920666f72206e6f60008301527f6e6578697374656e7420746f6b656e00000000000000000000000000000000006020830152604082019050919050565b600061449a602183614b23565b91507f4552433732313a20617070726f76616c20746f2063757272656e74206f776e6560008301527f72000000000000000000000000000000000000000000000000000000000000006020830152604082019050919050565b6000614500603183614b23565b91507f4552433732313a207472616e736665722063616c6c6572206973206e6f74206f60008301527f776e6572206e6f7220617070726f7665640000000000000000000000000000006020830152604082019050919050565b6000614566601783614b23565b91507f4554482073656e74206973206e6f7420636f72726563740000000000000000006000830152602082019050919050565b6145a281614cbe565b82525050565b60006145b48285613b94565b91506145c08284613b94565b91508190509392505050565b60006020820190506145e16000830184613b04565b92915050565b60006080820190506145fc6000830187613b04565b6146096020830186613b04565b6146166040830185614599565b81810360608301526146288184613b22565b905095945050505050565b60006020820190506146486000830184613b13565b92915050565b600060208201905081810360008301526146688184613b5b565b905092915050565b6000602082019050818103600083015261468981613bc5565b9050919050565b600060208201905081810360008301526146a981613c05565b9050919050565b600060208201905081810360008301526146c981613c45565b9050919050565b600060208201905081810360008301526146e981613c85565b9050919050565b6000602082019050818103600083015261470981613cc5565b9050919050565b6000602082019050818103600083015261472981613d05565b9050919050565b6000602082019050818103600083015261474981613d6b565b9050919050565b6000602082019050818103600083015261476981613dd1565b9050919050565b6000602082019050818103600083015261478981613e11565b9050919050565b600060208201905081810360008301526147a981613e51565b9050919050565b600060208201905081810360008301526147c981613e91565b9050919050565b600060208201905081810360008301526147e981613ef7565b9050919050565b6000602082019050818103600083015261480981613f37565b9050919050565b6000602082019050818103600083015261482981613f77565b9050919050565b6000602082019050818103600083015261484981613fdd565b9050919050565b600060208201905081810360008301526148698161401d565b9050919050565b6000602082019050818103600083015261488981614083565b9050919050565b600060208201905081810360008301526148a9816140e9565b9050919050565b600060208201905081810360008301526148c98161414f565b9050919050565b600060208201905081810360008301526148e9816141b5565b9050919050565b60006020820190508181036000830152614909816141f5565b9050919050565b6000602082019050818103600083015261492981614235565b9050919050565b6000602082019050818103600083015261494981614275565b9050919050565b60006020820190508181036000830152614969816142b5565b9050919050565b600060208201905081810360008301526149898161431b565b9050919050565b600060208201905081810360008301526149a981614381565b9050919050565b600060208201905081810360008301526149c9816143c1565b9050919050565b600060208201905081810360008301526149e981614427565b9050919050565b60006020820190508181036000830152614a098161448d565b9050919050565b60006020820190508181036000830152614a29816144f3565b9050919050565b60006020820190508181036000830152614a4981614559565b9050919050565b6000602082019050614a656000830184614599565b92915050565b6000604051905081810181811067ffffffffffffffff82111715614a9257614a91614e43565b5b8060405250919050565b600067ffffffffffffffff821115614ab757614ab6614e43565b5b601f19601f8301169050602081019050919050565b600067ffffffffffffffff821115614ae757614ae6614e43565b5b601f19601f8301169050602081019050919050565b600081519050919050565b600081519050919050565b600082825260208201905092915050565b600082825260208201905092915050565b600081905092915050565b6000614b4a82614cbe565b9150614b5583614cbe565b9250827fffffffffffffffffffffffffffffffffffffffffffffffffffffffffffffffff03821115614b8a57614b89614db6565b5b828201905092915050565b6000614ba082614cbe565b9150614bab83614cbe565b925082614bbb57614bba614de5565b5b828204905092915050565b6000614bd182614cbe565b9150614bdc83614cbe565b9250817fffffffffffffffffffffffffffffffffffffffffffffffffffffffffffffffff0483118215151615614c1557614c14614db6565b5b828202905092915050565b6000614c2b82614cbe565b9150614c3683614cbe565b925082821015614c4957614c48614db6565b5b828203905092915050565b6000614c5f82614c9e565b9050919050565b60008115159050919050565b60007fffffffff0000000000000000000000000000000000000000000000000000000082169050919050565b600073ffffffffffffffffffffffffffffffffffffffff82169050919050565b6000819050919050565b82818337600083830152505050565b60005b83811015614cf5578082015181840152602081019050614cda565b83811115614d04576000848401525b50505050565b60006002820490506001821680614d2257607f821691505b60208210811415614d3657614d35614e14565b5b50919050565b6000614d4782614cbe565b91507fffffffffffffffffffffffffffffffffffffffffffffffffffffffffffffffff821415614d7a57614d79614db6565b5b600182019050919050565b6000614d9082614cbe565b9150614d9b83614cbe565b925082614dab57614daa614de5565b5b828206905092915050565b7f4e487b7100000000000000000000000000000000000000000000000000000000600052601160045260246000fd5b7f4e487b7100000000000000000000000000000000000000000000000000000000600052601260045260246000fd5b7f4e487b7100000000000000000000000000000000000000000000000000000000600052602260045260246000fd5b7f4e487b7100000000000000000000000000000000000000000000000000000000600052604160045260246000fd5b6000601f19601f8301169050919050565b614e8c81614c54565b8114614e9757600080fd5b50565b614ea381614c66565b8114614eae57600080fd5b50565b614eba81614c72565b8114614ec557600080fd5b50565b614ed181614cbe565b8114614edc57600080fd5b5056fea264697066735822122064b341383c2e82961e177888b1655c8f5dc0a46aab7fecdf34c2c247ca93117664736f6c63430008000033",
  "linkReferences": {},
  "deployedLinkReferences": {}
}