{
  "_format": "hh-sol-artifact-1",
  "contractName": "VaporPlanes",
  "sourceName": "contracts/VaporPlanes.sol",
  "abi": [
    {
      "inputs": [],
      "stateMutability": "nonpayable",
      "type": "constructor"
    },
    {
      "anonymous": false,
      "inputs": [
        {
          "indexed": true,
          "internalType": "address",
          "name": "owner",
          "type": "address"
        },
        {
          "indexed": true,
          "internalType": "address",
          "name": "approved",
          "type": "address"
        },
        {
          "indexed": true,
          "internalType": "uint256",
          "name": "tokenId",
          "type": "uint256"
        }
      ],
      "name": "Approval",
      "type": "event"
    },
    {
      "anonymous": false,
      "inputs": [
        {
          "indexed": true,
          "internalType": "address",
          "name": "owner",
          "type": "address"
        },
        {
          "indexed": true,
          "internalType": "address",
          "name": "operator",
          "type": "address"
        },
        {
          "indexed": false,
          "internalType": "bool",
          "name": "approved",
          "type": "bool"
        }
      ],
      "name": "ApprovalForAll",
      "type": "event"
    },
    {
      "anonymous": false,
      "inputs": [
        {
          "indexed": true,
          "internalType": "address",
          "name": "previousOwner",
          "type": "address"
        },
        {
          "indexed": true,
          "internalType": "address",
          "name": "newOwner",
          "type": "address"
        }
      ],
      "name": "OwnershipTransferred",
      "type": "event"
    },
    {
      "anonymous": false,
      "inputs": [
        {
          "indexed": true,
          "internalType": "address",
          "name": "from",
          "type": "address"
        },
        {
          "indexed": true,
          "internalType": "address",
          "name": "to",
          "type": "address"
        },
        {
          "indexed": true,
          "internalType": "uint256",
          "name": "tokenId",
          "type": "uint256"
        }
      ],
      "name": "Transfer",
      "type": "event"
    },
    {
      "inputs": [],
      "name": "COST_ONE",
      "outputs": [
        {
          "internalType": "uint256",
          "name": "",
          "type": "uint256"
        }
      ],
      "stateMutability": "view",
      "type": "function"
    },
    {
      "inputs": [],
      "name": "MAX_MINT",
      "outputs": [
        {
          "internalType": "uint256",
          "name": "",
          "type": "uint256"
        }
      ],
      "stateMutability": "view",
      "type": "function"
    },
    {
      "inputs": [],
      "name": "MAX_PRIVATE_SUPPLY",
      "outputs": [
        {
          "internalType": "uint256",
          "name": "",
          "type": "uint256"
        }
      ],
      "stateMutability": "view",
      "type": "function"
    },
    {
      "inputs": [],
      "name": "MAX_PUBLIC_SUPPLY",
      "outputs": [
        {
          "internalType": "uint256",
          "name": "",
          "type": "uint256"
        }
      ],
      "stateMutability": "view",
      "type": "function"
    },
    {
      "inputs": [],
      "name": "MAX_SUPPLY",
      "outputs": [
        {
          "internalType": "uint256",
          "name": "",
          "type": "uint256"
        }
      ],
      "stateMutability": "view",
      "type": "function"
    },
    {
      "inputs": [
        {
          "internalType": "address[]",
          "name": "addresses",
          "type": "address[]"
        }
      ],
      "name": "addToWhitelist",
      "outputs": [],
      "stateMutability": "nonpayable",
      "type": "function"
    },
    {
      "inputs": [
        {
          "internalType": "address",
          "name": "to",
          "type": "address"
        },
        {
          "internalType": "uint256",
          "name": "tokenId",
          "type": "uint256"
        }
      ],
      "name": "approve",
      "outputs": [],
      "stateMutability": "nonpayable",
      "type": "function"
    },
    {
      "inputs": [
        {
          "internalType": "address",
          "name": "owner",
          "type": "address"
        }
      ],
      "name": "balanceOf",
      "outputs": [
        {
          "internalType": "uint256",
          "name": "",
          "type": "uint256"
        }
      ],
      "stateMutability": "view",
      "type": "function"
    },
    {
      "inputs": [
        {
          "internalType": "address",
          "name": "owner",
          "type": "address"
        }
      ],
      "name": "claimedBy",
      "outputs": [
        {
          "internalType": "uint256",
          "name": "",
          "type": "uint256"
        }
      ],
      "stateMutability": "view",
      "type": "function"
    },
    {
      "inputs": [],
      "name": "contractURI",
      "outputs": [
        {
          "internalType": "string",
          "name": "",
          "type": "string"
        }
      ],
      "stateMutability": "view",
      "type": "function"
    },
    {
      "inputs": [],
      "name": "freeMint",
      "outputs": [],
      "stateMutability": "payable",
      "type": "function"
    },
    {
      "inputs": [
        {
          "internalType": "uint256",
          "name": "tokenId",
          "type": "uint256"
        }
      ],
      "name": "getApproved",
      "outputs": [
        {
          "internalType": "address",
          "name": "",
          "type": "address"
        }
      ],
      "stateMutability": "view",
      "type": "function"
    },
    {
      "inputs": [
        {
          "internalType": "uint256",
          "name": "num",
          "type": "uint256"
        }
      ],
      "name": "getCost",
      "outputs": [
        {
          "internalType": "uint256",
          "name": "",
          "type": "uint256"
        }
      ],
      "stateMutability": "pure",
      "type": "function"
    },
    {
      "inputs": [
        {
          "internalType": "address",
          "name": "to",
          "type": "address"
        },
        {
          "internalType": "uint256",
          "name": "num",
          "type": "uint256"
        }
      ],
      "name": "gift",
      "outputs": [],
      "stateMutability": "nonpayable",
      "type": "function"
    },
    {
      "inputs": [],
      "name": "isActive",
      "outputs": [
        {
          "internalType": "bool",
          "name": "",
          "type": "bool"
        }
      ],
      "stateMutability": "view",
      "type": "function"
    },
    {
      "inputs": [
        {
          "internalType": "address",
          "name": "owner",
          "type": "address"
        },
        {
          "internalType": "address",
          "name": "operator",
          "type": "address"
        }
      ],
      "name": "isApprovedForAll",
      "outputs": [
        {
          "internalType": "bool",
          "name": "",
          "type": "bool"
        }
      ],
      "stateMutability": "view",
      "type": "function"
    },
    {
      "inputs": [],
      "name": "isFreeActive",
      "outputs": [
        {
          "internalType": "bool",
          "name": "",
          "type": "bool"
        }
      ],
      "stateMutability": "view",
      "type": "function"
    },
    {
      "inputs": [
        {
          "internalType": "address",
          "name": "addr",
          "type": "address"
        }
      ],
      "name": "isOnWhitelist",
      "outputs": [
        {
          "internalType": "bool",
          "name": "",
          "type": "bool"
        }
      ],
      "stateMutability": "view",
      "type": "function"
    },
    {
      "inputs": [],
      "name": "isWhitelistActive",
      "outputs": [
        {
          "internalType": "bool",
          "name": "",
          "type": "bool"
        }
      ],
      "stateMutability": "view",
      "type": "function"
    },
    {
      "inputs": [
        {
          "internalType": "uint256",
          "name": "num",
          "type": "uint256"
        }
      ],
      "name": "mint",
      "outputs": [],
      "stateMutability": "payable",
      "type": "function"
    },
    {
      "inputs": [],
      "name": "name",
      "outputs": [
        {
          "internalType": "string",
          "name": "",
          "type": "string"
        }
      ],
      "stateMutability": "view",
      "type": "function"
    },
    {
      "inputs": [],
      "name": "owner",
      "outputs": [
        {
          "internalType": "address",
          "name": "",
          "type": "address"
        }
      ],
      "stateMutability": "view",
      "type": "function"
    },
    {
      "inputs": [
        {
          "internalType": "uint256",
          "name": "tokenId",
          "type": "uint256"
        }
      ],
      "name": "ownerOf",
      "outputs": [
        {
          "internalType": "address",
          "name": "",
          "type": "address"
        }
      ],
      "stateMutability": "view",
      "type": "function"
    },
    {
      "inputs": [
        {
          "internalType": "address[]",
          "name": "addresses",
          "type": "address[]"
        }
      ],
      "name": "removeFromWhitelist",
      "outputs": [],
      "stateMutability": "nonpayable",
      "type": "function"
    },
    {
      "inputs": [],
      "name": "renounceOwnership",
      "outputs": [],
      "stateMutability": "nonpayable",
      "type": "function"
    },
    {
      "inputs": [
        {
          "internalType": "address",
          "name": "from",
          "type": "address"
        },
        {
          "internalType": "address",
          "name": "to",
          "type": "address"
        },
        {
          "internalType": "uint256",
          "name": "tokenId",
          "type": "uint256"
        }
      ],
      "name": "safeTransferFrom",
      "outputs": [],
      "stateMutability": "nonpayable",
      "type": "function"
    },
    {
      "inputs": [
        {
          "internalType": "address",
          "name": "from",
          "type": "address"
        },
        {
          "internalType": "address",
          "name": "to",
          "type": "address"
        },
        {
          "internalType": "uint256",
          "name": "tokenId",
          "type": "uint256"
        },
        {
          "internalType": "bytes",
          "name": "_data",
          "type": "bytes"
        }
      ],
      "name": "safeTransferFrom",
      "outputs": [],
      "stateMutability": "nonpayable",
      "type": "function"
    },
    {
      "inputs": [
        {
          "internalType": "bool",
          "name": "val",
          "type": "bool"
        }
      ],
      "name": "setActive",
      "outputs": [],
      "stateMutability": "nonpayable",
      "type": "function"
    },
    {
      "inputs": [
        {
          "internalType": "address",
          "name": "operator",
          "type": "address"
        },
        {
          "internalType": "bool",
          "name": "approved",
          "type": "bool"
        }
      ],
      "name": "setApprovalForAll",
      "outputs": [],
      "stateMutability": "nonpayable",
      "type": "function"
    },
    {
      "inputs": [
        {
          "internalType": "string",
          "name": "val",
          "type": "string"
        }
      ],
      "name": "setBaseURI",
      "outputs": [],
      "stateMutability": "nonpayable",
      "type": "function"
    },
    {
      "inputs": [
        {
          "internalType": "string",
          "name": "contractURI_",
          "type": "string"
        }
      ],
      "name": "setContractURI",
      "outputs": [],
      "stateMutability": "nonpayable",
      "type": "function"
    },
    {
      "inputs": [
        {
          "internalType": "bool",
          "name": "val",
          "type": "bool"
        }
      ],
      "name": "setFreeActive",
      "outputs": [],
      "stateMutability": "nonpayable",
      "type": "function"
    },
    {
      "inputs": [
        {
          "internalType": "bool",
          "name": "val",
          "type": "bool"
        }
      ],
      "name": "setWhitelistActive",
      "outputs": [],
      "stateMutability": "nonpayable",
      "type": "function"
    },
    {
      "inputs": [
        {
          "internalType": "uint256",
          "name": "val",
          "type": "uint256"
        }
      ],
      "name": "setWhitelistMaxMint",
      "outputs": [],
      "stateMutability": "nonpayable",
      "type": "function"
    },
    {
      "inputs": [
        {
          "internalType": "uint256",
          "name": "val",
          "type": "uint256"
        }
      ],
      "name": "setWhitelistPrice",
      "outputs": [],
      "stateMutability": "nonpayable",
      "type": "function"
    },
    {
      "inputs": [
        {
          "internalType": "bytes4",
          "name": "interfaceId",
          "type": "bytes4"
        }
      ],
      "name": "supportsInterface",
      "outputs": [
        {
          "internalType": "bool",
          "name": "",
          "type": "bool"
        }
      ],
      "stateMutability": "view",
      "type": "function"
    },
    {
      "inputs": [],
      "name": "symbol",
      "outputs": [
        {
          "internalType": "string",
          "name": "",
          "type": "string"
        }
      ],
      "stateMutability": "view",
      "type": "function"
    },
    {
      "inputs": [
        {
          "internalType": "uint256",
          "name": "index",
          "type": "uint256"
        }
      ],
      "name": "tokenByIndex",
      "outputs": [
        {
          "internalType": "uint256",
          "name": "",
          "type": "uint256"
        }
      ],
      "stateMutability": "view",
      "type": "function"
    },
    {
      "inputs": [
        {
          "internalType": "address",
          "name": "owner",
          "type": "address"
        },
        {
          "internalType": "uint256",
          "name": "index",
          "type": "uint256"
        }
      ],
      "name": "tokenOfOwnerByIndex",
      "outputs": [
        {
          "internalType": "uint256",
          "name": "",
          "type": "uint256"
        }
      ],
      "stateMutability": "view",
      "type": "function"
    },
    {
      "inputs": [
        {
          "internalType": "uint256",
          "name": "tokenId",
          "type": "uint256"
        }
      ],
      "name": "tokenURI",
      "outputs": [
        {
          "internalType": "string",
          "name": "",
          "type": "string"
        }
      ],
      "stateMutability": "view",
      "type": "function"
    },
    {
      "inputs": [],
      "name": "totalPrivateSupply",
      "outputs": [
        {
          "internalType": "uint256",
          "name": "",
          "type": "uint256"
        }
      ],
      "stateMutability": "view",
      "type": "function"
    },
    {
      "inputs": [],
      "name": "totalPublicSupply",
      "outputs": [
        {
          "internalType": "uint256",
          "name": "",
          "type": "uint256"
        }
      ],
      "stateMutability": "view",
      "type": "function"
    },
    {
      "inputs": [],
      "name": "totalSupply",
      "outputs": [
        {
          "internalType": "uint256",
          "name": "",
          "type": "uint256"
        }
      ],
      "stateMutability": "view",
      "type": "function"
    },
    {
      "inputs": [
        {
          "internalType": "address",
          "name": "from",
          "type": "address"
        },
        {
          "internalType": "address",
          "name": "to",
          "type": "address"
        },
        {
          "internalType": "uint256",
          "name": "tokenId",
          "type": "uint256"
        }
      ],
      "name": "transferFrom",
      "outputs": [],
      "stateMutability": "nonpayable",
      "type": "function"
    },
    {
      "inputs": [
        {
          "internalType": "address",
          "name": "newOwner",
          "type": "address"
        }
      ],
      "name": "transferOwnership",
      "outputs": [],
      "stateMutability": "nonpayable",
      "type": "function"
    },
    {
      "inputs": [
        {
          "internalType": "address",
          "name": "owner",
          "type": "address"
        }
      ],
      "name": "whitelistClaimedBy",
      "outputs": [
        {
          "internalType": "uint256",
          "name": "",
          "type": "uint256"
        }
      ],
      "stateMutability": "view",
      "type": "function"
    },
    {
      "inputs": [],
      "name": "whitelistCost",
      "outputs": [
        {
          "internalType": "uint256",
          "name": "",
          "type": "uint256"
        }
      ],
      "stateMutability": "view",
      "type": "function"
    },
    {
      "inputs": [],
      "name": "whitelistMaxMint",
      "outputs": [
        {
          "internalType": "uint256",
          "name": "",
          "type": "uint256"
        }
      ],
      "stateMutability": "view",
      "type": "function"
    },
    {
      "inputs": [
        {
          "internalType": "uint256",
          "name": "num",
          "type": "uint256"
        }
      ],
      "name": "whitelistMint",
      "outputs": [],
      "stateMutability": "payable",
      "type": "function"
    },
    {
      "inputs": [],
      "name": "withdraw",
      "outputs": [],
      "stateMutability": "payable",
      "type": "function"
    }
  ],
  "bytecode": "0x6080604052666a94d74f430000600b556001600c556000600d60006101000a81548160ff0219169083151502179055506000600d60016101000a81548160ff0219169083151502179055506000600d60026101000a81548160ff0219169083151502179055506040518060400160405280601881526020017f68747470733a2f2f6368696c6c626c6f636b732e636f6d2f000000000000000081525060119080519060200190620000b292919062000255565b50348015620000c057600080fd5b506040518060400160405280600b81526020017f5661706f72506c616e65730000000000000000000000000000000000000000008152506040518060400160405280600b81526020017f5641504f52504c414e455300000000000000000000000000000000000000000081525081600090805190602001906200014592919062000255565b5080600190805190602001906200015e92919062000255565b50505062000181620001756200018760201b60201c565b6200018f60201b60201c565b6200036a565b600033905090565b6000600a60009054906101000a900473ffffffffffffffffffffffffffffffffffffffff16905081600a60006101000a81548173ffffffffffffffffffffffffffffffffffffffff021916908373ffffffffffffffffffffffffffffffffffffffff1602179055508173ffffffffffffffffffffffffffffffffffffffff168173ffffffffffffffffffffffffffffffffffffffff167f8be0079c531659141344cd1fd0a4f28419497f9722a3daafe3b4186f6b6457e060405160405180910390a35050565b828054620002639062000305565b90600052602060002090601f016020900481019282620002875760008555620002d3565b82601f10620002a257805160ff1916838001178555620002d3565b82800160010185558215620002d3579182015b82811115620002d2578251825591602001919060010190620002b5565b5b509050620002e29190620002e6565b5090565b5b8082111562000301576000816000905550600101620002e7565b5090565b600060028204905060018216806200031e57607f821691505b602082108114156200033557620003346200033b565b5b50919050565b7f4e487b7100000000000000000000000000000000000000000000000000000000600052602260045260246000fd5b615725806200037a6000396000f3fe6080604052600436106102c95760003560e01c806370a0823111610175578063acec338a116100dc578063e214696311610095578063e8a3d4851161006f578063e8a3d48514610abc578063e985e9c514610ae7578063f0292a0314610b24578063f2fde38b14610b4f576102c9565b8063e214696314610a3d578063e6a5931e14610a66578063e7b99ec714610a91576102c9565b8063acec338a14610931578063b88d4fde1461095a578063c3b754dc14610983578063c87b56dd146109ac578063cbce4c97146109e9578063cc7eee1e14610a12576102c9565b80638aa9090a1161012e5780638aa9090a146108445780638da5cb5b1461086d578063938e3d7b1461089857806395d89b41146108c1578063a0712d68146108ec578063a22cb46514610908576102c9565b806370a0823114610757578063715018a614610794578063717d57d3146107ab578063722e141d146107d45780637f649783146107ff578063868ff4a214610828576102c9565b8063340ee37c11610234578063524513d6116101ed5780635a4dd47d116101c75780635a4dd47d146106a85780635b4c0a25146106e55780635b70ea9f146107105780636352211e1461071a576102c9565b8063524513d61461062b578063548db1741461065657806355f804b31461067f576102c9565b8063340ee37c14610516578063352567a2146105535780633a3ab6721461057e5780633ccfd60b146105bb57806342842e0e146105c55780634f6ccce7146105ee576102c9565b806322f3e2d41161028657806322f3e2d4146103f257806323b872dd1461041d57806329998d4b146104465780632a47f799146104835780632f745c59146104ae57806332cb6b0c146104eb576102c9565b806301ffc9a7146102ce578063053d67661461030b57806306fdde0314610336578063081812fc14610361578063095ea7b31461039e57806318160ddd146103c7575b600080fd5b3480156102da57600080fd5b506102f560048036038101906102f09190614198565b610b78565b6040516103029190614e03565b60405180910390f35b34801561031757600080fd5b50610320610bf2565b60405161032d9190615260565b60405180910390f35b34801561034257600080fd5b5061034b610bf8565b6040516103589190614e1e565b60405180910390f35b34801561036d57600080fd5b506103886004803603810190610383919061422b565b610c8a565b6040516103959190614d9c565b60405180910390f35b3480156103aa57600080fd5b506103c560048036038101906103c091906140ee565b610d0f565b005b3480156103d357600080fd5b506103dc610e27565b6040516103e99190615260565b60405180910390f35b3480156103fe57600080fd5b50610407610e34565b6040516104149190614e03565b60405180910390f35b34801561042957600080fd5b50610444600480360381019061043f9190613fe8565b610e47565b005b34801561045257600080fd5b5061046d60048036038101906104689190613f83565b610ea7565b60405161047a9190615260565b60405180910390f35b34801561048f57600080fd5b50610498610f5f565b6040516104a59190615260565b60405180910390f35b3480156104ba57600080fd5b506104d560048036038101906104d091906140ee565b610f64565b6040516104e29190615260565b60405180910390f35b3480156104f757600080fd5b50610500611009565b60405161050d9190615260565b60405180910390f35b34801561052257600080fd5b5061053d60048036038101906105389190613f83565b61101b565b60405161054a9190615260565b60405180910390f35b34801561055f57600080fd5b506105686110d3565b6040516105759190615260565b60405180910390f35b34801561058a57600080fd5b506105a560048036038101906105a09190613f83565b6110d9565b6040516105b29190614e03565b60405180910390f35b6105c361112f565b005b3480156105d157600080fd5b506105ec60048036038101906105e79190613fe8565b611293565b005b3480156105fa57600080fd5b506106156004803603810190610610919061422b565b6112b3565b6040516106229190615260565b60405180910390f35b34801561063757600080fd5b5061064061134a565b60405161064d9190614e03565b60405180910390f35b34801561066257600080fd5b5061067d6004803603810190610678919061412a565b61135d565b005b34801561068b57600080fd5b506106a660048036038101906106a191906141ea565b611561565b005b3480156106b457600080fd5b506106cf60048036038101906106ca919061422b565b6115f7565b6040516106dc9190615260565b60405180910390f35b3480156106f157600080fd5b506106fa611613565b6040516107079190615260565b60405180910390f35b61071861161e565b005b34801561072657600080fd5b50610741600480360381019061073c919061422b565b611817565b60405161074e9190614d9c565b60405180910390f35b34801561076357600080fd5b5061077e60048036038101906107799190613f83565b6118c9565b60405161078b9190615260565b60405180910390f35b3480156107a057600080fd5b506107a9611981565b005b3480156107b757600080fd5b506107d260048036038101906107cd919061422b565b611a09565b005b3480156107e057600080fd5b506107e9611a8f565b6040516107f69190615260565b60405180910390f35b34801561080b57600080fd5b506108266004803603810190610821919061412a565b611a95565b005b610842600480360381019061083d919061422b565b611bdc565b005b34801561085057600080fd5b5061086b6004803603810190610866919061416f565b611f9c565b005b34801561087957600080fd5b50610882612035565b60405161088f9190614d9c565b60405180910390f35b3480156108a457600080fd5b506108bf60048036038101906108ba91906141ea565b61205f565b005b3480156108cd57600080fd5b506108d66120f5565b6040516108e39190614e1e565b60405180910390f35b6109066004803603810190610901919061422b565b612187565b005b34801561091457600080fd5b5061092f600480360381019061092a91906140b2565b61236c565b005b34801561093d57600080fd5b506109586004803603810190610953919061416f565b6124ed565b005b34801561096657600080fd5b50610981600480360381019061097c9190614037565b6125d8565b005b34801561098f57600080fd5b506109aa60048036038101906109a5919061416f565b61263a565b005b3480156109b857600080fd5b506109d360048036038101906109ce919061422b565b6126d3565b6040516109e09190614e1e565b60405180910390f35b3480156109f557600080fd5b50610a106004803603810190610a0b91906140ee565b61277a565b005b348015610a1e57600080fd5b50610a276128ff565b604051610a349190614e03565b60405180910390f35b348015610a4957600080fd5b50610a646004803603810190610a5f919061422b565b612912565b005b348015610a7257600080fd5b50610a7b612998565b604051610a889190615260565b60405180910390f35b348015610a9d57600080fd5b50610aa661299e565b604051610ab39190615260565b60405180910390f35b348015610ac857600080fd5b50610ad16129a4565b604051610ade9190614e1e565b60405180910390f35b348015610af357600080fd5b50610b0e6004803603810190610b099190613fac565b612a36565b604051610b1b9190614e03565b60405180910390f35b348015610b3057600080fd5b50610b39612aca565b604051610b469190615260565b60405180910390f35b348015610b5b57600080fd5b50610b766004803603810190610b719190613f83565b612acf565b005b60007f780e9d63000000000000000000000000000000000000000000000000000000007bffffffffffffffffffffffffffffffffffffffffffffffffffffffff1916827bffffffffffffffffffffffffffffffffffffffffffffffffffffffff19161480610beb5750610bea82612bc7565b5b9050919050565b600e5481565b606060008054610c079061551a565b80601f0160208091040260200160405190810160405280929190818152602001828054610c339061551a565b8015610c805780601f10610c5557610100808354040283529160200191610c80565b820191906000526020600020905b815481529060010190602001808311610c6357829003601f168201915b5050505050905090565b6000610c9582612ca9565b610cd4576040517f08c379a0000000000000000000000000000000000000000000000000000000008152600401610ccb90615120565b60405180910390fd5b6004600083815260200190815260200160002060009054906101000a900473ffffffffffffffffffffffffffffffffffffffff169050919050565b6000610d1a82611817565b90508073ffffffffffffffffffffffffffffffffffffffff168373ffffffffffffffffffffffffffffffffffffffff161415610d8b576040517f08c379a0000000000000000000000000000000000000000000000000000000008152600401610d82906151c0565b60405180910390fd5b8073ffffffffffffffffffffffffffffffffffffffff16610daa612d15565b73ffffffffffffffffffffffffffffffffffffffff161480610dd95750610dd881610dd3612d15565b612a36565b5b610e18576040517f08c379a0000000000000000000000000000000000000000000000000000000008152600401610e0f90615040565b60405180910390fd5b610e228383612d1d565b505050565b6000600880549050905090565b600d60009054906101000a900460ff1681565b610e58610e52612d15565b82612dd6565b610e97576040517f08c379a0000000000000000000000000000000000000000000000000000000008152600401610e8e906151e0565b60405180910390fd5b610ea2838383612eb4565b505050565b60008073ffffffffffffffffffffffffffffffffffffffff168273ffffffffffffffffffffffffffffffffffffffff161415610f18576040517f08c379a0000000000000000000000000000000000000000000000000000000008152600401610f0f90614e40565b60405180910390fd5b601260008373ffffffffffffffffffffffffffffffffffffffff1673ffffffffffffffffffffffffffffffffffffffff168152602001908152602001600020549050919050565b606481565b6000610f6f836118c9565b8210610fb0576040517f08c379a0000000000000000000000000000000000000000000000000000000008152600401610fa790614ec0565b60405180910390fd5b600660008473ffffffffffffffffffffffffffffffffffffffff1673ffffffffffffffffffffffffffffffffffffffff168152602001908152602001600020600083815260200190815260200160002054905092915050565b6064610384611018919061534f565b81565b60008073ffffffffffffffffffffffffffffffffffffffff168273ffffffffffffffffffffffffffffffffffffffff16141561108c576040517f08c379a000000000000000000000000000000000000000000000000000000000815260040161108390614e40565b60405180910390fd5b601460008373ffffffffffffffffffffffffffffffffffffffff1673ffffffffffffffffffffffffffffffffffffffff168152602001908152602001600020549050919050565b61038481565b6000601360008373ffffffffffffffffffffffffffffffffffffffff1673ffffffffffffffffffffffffffffffffffffffff16815260200190815260200160002060009054906101000a900460ff169050919050565b611137612d15565b73ffffffffffffffffffffffffffffffffffffffff16611155612035565b73ffffffffffffffffffffffffffffffffffffffff16146111ab576040517f08c379a00000000000000000000000000000000000000000000000000000000081526004016111a290615140565b60405180910390fd5b600047905060006064604b836111c191906153d6565b6111cb91906153a5565b9050600060646019846111de91906153d6565b6111e891906153a5565b905073a60ca66a56de913edbb829ae503d4320f1c26ce273ffffffffffffffffffffffffffffffffffffffff166108fc839081150290604051600060405180830381858888f1935050505061123c57600080fd5b73a2529513fa09da493e2ca9e876f4f791780ba4a373ffffffffffffffffffffffffffffffffffffffff166108fc829081150290604051600060405180830381858888f1935050505061128e57600080fd5b505050565b6112ae838383604051806020016040528060008152506125d8565b505050565b60006112bd610e27565b82106112fe576040517f08c379a00000000000000000000000000000000000000000000000000000000081526004016112f590615200565b60405180910390fd5b60088281548110611338577f4e487b7100000000000000000000000000000000000000000000000000000000600052603260045260246000fd5b90600052602060002001549050919050565b600d60029054906101000a900460ff1681565b611365612d15565b73ffffffffffffffffffffffffffffffffffffffff16611383612035565b73ffffffffffffffffffffffffffffffffffffffff16146113d9576040517f08c379a00000000000000000000000000000000000000000000000000000000081526004016113d090615140565b60405180910390fd5b60005b8282905081101561155c57600073ffffffffffffffffffffffffffffffffffffffff16838383818110611438577f4e487b7100000000000000000000000000000000000000000000000000000000600052603260045260246000fd5b905060200201602081019061144d9190613f83565b73ffffffffffffffffffffffffffffffffffffffff1614156114a4576040517f08c379a000000000000000000000000000000000000000000000000000000000815260040161149b90614e60565b60405180910390fd5b6000601360008585858181106114e3577f4e487b7100000000000000000000000000000000000000000000000000000000600052603260045260246000fd5b90506020020160208101906114f89190613f83565b73ffffffffffffffffffffffffffffffffffffffff1673ffffffffffffffffffffffffffffffffffffffff16815260200190815260200160002060006101000a81548160ff02191690831515021790555080806115549061554c565b9150506113dc565b505050565b611569612d15565b73ffffffffffffffffffffffffffffffffffffffff16611587612035565b73ffffffffffffffffffffffffffffffffffffffff16146115dd576040517f08c379a00000000000000000000000000000000000000000000000000000000081526004016115d490615140565b60405180910390fd5b80601190805190602001906115f3929190613d5d565b5050565b60008166b1a2bc2ec5000061160c91906153d6565b9050919050565b66b1a2bc2ec5000081565b600d60019054906101000a900460ff1661166d576040517f08c379a0000000000000000000000000000000000000000000000000000000008152600401611664906151a0565b60405180910390fd5b6000601260003373ffffffffffffffffffffffffffffffffffffffff1673ffffffffffffffffffffffffffffffffffffffff16815260200190815260200160002054146116ef576040517f08c379a00000000000000000000000000000000000000000000000000000000081526004016116e690615220565b60405180910390fd5b60646103846116fe919061534f565b611706610e27565b10611746576040517f08c379a000000000000000000000000000000000000000000000000000000000815260040161173d90614f40565b60405180910390fd5b6064600f541061178b576040517f08c379a000000000000000000000000000000000000000000000000000000000815260040161178290614fe0565b60405180910390fd5b6001600f600082825461179e919061534f565b925050819055506001601260003373ffffffffffffffffffffffffffffffffffffffff1673ffffffffffffffffffffffffffffffffffffffff16815260200190815260200160002060008282546117f5919061534f565b9250508190555061181533600f54610384611810919061534f565b613110565b565b6000806002600084815260200190815260200160002060009054906101000a900473ffffffffffffffffffffffffffffffffffffffff169050600073ffffffffffffffffffffffffffffffffffffffff168173ffffffffffffffffffffffffffffffffffffffff1614156118c0576040517f08c379a00000000000000000000000000000000000000000000000000000000081526004016118b790615080565b60405180910390fd5b80915050919050565b60008073ffffffffffffffffffffffffffffffffffffffff168273ffffffffffffffffffffffffffffffffffffffff16141561193a576040517f08c379a000000000000000000000000000000000000000000000000000000000815260040161193190615060565b60405180910390fd5b600360008373ffffffffffffffffffffffffffffffffffffffff1673ffffffffffffffffffffffffffffffffffffffff168152602001908152602001600020549050919050565b611989612d15565b73ffffffffffffffffffffffffffffffffffffffff166119a7612035565b73ffffffffffffffffffffffffffffffffffffffff16146119fd576040517f08c379a00000000000000000000000000000000000000000000000000000000081526004016119f490615140565b60405180910390fd5b611a07600061312e565b565b611a11612d15565b73ffffffffffffffffffffffffffffffffffffffff16611a2f612035565b73ffffffffffffffffffffffffffffffffffffffff1614611a85576040517f08c379a0000000000000000000000000000000000000000000000000000000008152600401611a7c90615140565b60405180910390fd5b80600b8190555050565b600c5481565b611a9d612d15565b73ffffffffffffffffffffffffffffffffffffffff16611abb612035565b73ffffffffffffffffffffffffffffffffffffffff1614611b11576040517f08c379a0000000000000000000000000000000000000000000000000000000008152600401611b0890615140565b60405180910390fd5b60005b82829050811015611bd757600160136000858585818110611b5e577f4e487b7100000000000000000000000000000000000000000000000000000000600052603260045260246000fd5b9050602002016020810190611b739190613f83565b73ffffffffffffffffffffffffffffffffffffffff1673ffffffffffffffffffffffffffffffffffffffff16815260200190815260200160002060006101000a81548160ff0219169083151502179055508080611bcf9061554c565b915050611b14565b505050565b600d60029054906101000a900460ff16611c2b576040517f08c379a0000000000000000000000000000000000000000000000000000000008152600401611c2290614ea0565b60405180910390fd5b601360003373ffffffffffffffffffffffffffffffffffffffff1673ffffffffffffffffffffffffffffffffffffffff16815260200190815260200160002060009054906101000a900460ff16611cb7576040517f08c379a0000000000000000000000000000000000000000000000000000000008152600401611cae906150e0565b60405180910390fd5b6001600c54611cc6919061534f565b8110611d07576040517f08c379a0000000000000000000000000000000000000000000000000000000008152600401611cfe90614ee0565b60405180910390fd5b6001600c54611d16919061534f565b81601460003373ffffffffffffffffffffffffffffffffffffffff1673ffffffffffffffffffffffffffffffffffffffff16815260200190815260200160002054611d61919061534f565b10611da1576040517f08c379a0000000000000000000000000000000000000000000000000000000008152600401611d9890614f80565b60405180910390fd5b6064610384611db0919061534f565b611db8610e27565b10611df8576040517f08c379a0000000000000000000000000000000000000000000000000000000008152600401611def90614f40565b60405180910390fd5b6064600f5410611e3d576040517f08c379a0000000000000000000000000000000000000000000000000000000008152600401611e3490614fe0565b60405180910390fd5b3481600b54611e4c91906153d6565b1115611e8d576040517f08c379a0000000000000000000000000000000000000000000000000000000008152600401611e84906150c0565b60405180910390fd5b60005b81811015611f98576001600f6000828254611eab919061534f565b925050819055506000600b541415611f15576001601260003373ffffffffffffffffffffffffffffffffffffffff1673ffffffffffffffffffffffffffffffffffffffff1681526020019081526020016000206000828254611f0d919061534f565b925050819055505b6001601460003373ffffffffffffffffffffffffffffffffffffffff1673ffffffffffffffffffffffffffffffffffffffff1681526020019081526020016000206000828254611f65919061534f565b92505081905550611f8533600f54610384611f80919061534f565b613110565b8080611f909061554c565b915050611e90565b5050565b611fa4612d15565b73ffffffffffffffffffffffffffffffffffffffff16611fc2612035565b73ffffffffffffffffffffffffffffffffffffffff1614612018576040517f08c379a000000000000000000000000000000000000000000000000000000000815260040161200f90615140565b60405180910390fd5b80600d60016101000a81548160ff02191690831515021790555050565b6000600a60009054906101000a900473ffffffffffffffffffffffffffffffffffffffff16905090565b612067612d15565b73ffffffffffffffffffffffffffffffffffffffff16612085612035565b73ffffffffffffffffffffffffffffffffffffffff16146120db576040517f08c379a00000000000000000000000000000000000000000000000000000000081526004016120d290615140565b60405180910390fd5b80601090805190602001906120f1929190613d5d565b5050565b6060600180546121049061551a565b80601f01602080910402602001604051908101604052809291908181526020018280546121309061551a565b801561217d5780601f106121525761010080835404028352916020019161217d565b820191906000526020600020905b81548152906001019060200180831161216057829003601f168201915b5050505050905090565b600d60009054906101000a900460ff166121d6576040517f08c379a00000000000000000000000000000000000000000000000000000000081526004016121cd90615020565b60405180910390fd5b6001806121e3919061534f565b8110612224576040517f08c379a000000000000000000000000000000000000000000000000000000000815260040161221b90614ee0565b60405180910390fd5b6064610384612233919061534f565b61223b610e27565b1061227b576040517f08c379a000000000000000000000000000000000000000000000000000000000815260040161227290614f40565b60405180910390fd5b6064600f54106122c0576040517f08c379a00000000000000000000000000000000000000000000000000000000081526004016122b790614fe0565b60405180910390fd5b6122c9816115f7565b34101561230b576040517f08c379a000000000000000000000000000000000000000000000000000000000815260040161230290615240565b60405180910390fd5b60005b81811015612368576064600f541015612355576001600f6000828254612334919061534f565b9250508190555061235433600f5461038461234f919061534f565b613110565b5b80806123609061554c565b91505061230e565b5050565b612374612d15565b73ffffffffffffffffffffffffffffffffffffffff168273ffffffffffffffffffffffffffffffffffffffff1614156123e2576040517f08c379a00000000000000000000000000000000000000000000000000000000081526004016123d990614fc0565b60405180910390fd5b80600560006123ef612d15565b73ffffffffffffffffffffffffffffffffffffffff1673ffffffffffffffffffffffffffffffffffffffff16815260200190815260200160002060008473ffffffffffffffffffffffffffffffffffffffff1673ffffffffffffffffffffffffffffffffffffffff16815260200190815260200160002060006101000a81548160ff0219169083151502179055508173ffffffffffffffffffffffffffffffffffffffff1661249c612d15565b73ffffffffffffffffffffffffffffffffffffffff167f17307eab39ab6107e8899845ad3d59bd9653f200f220920489ca2b5937696c31836040516124e19190614e03565b60405180910390a35050565b6124f5612d15565b73ffffffffffffffffffffffffffffffffffffffff16612513612035565b73ffffffffffffffffffffffffffffffffffffffff1614612569576040517f08c379a000000000000000000000000000000000000000000000000000000000815260040161256090615140565b60405180910390fd5b6000601180546125789061551a565b905014156125bb576040517f08c379a00000000000000000000000000000000000000000000000000000000081526004016125b290614e80565b60405180910390fd5b80600d60006101000a81548160ff02191690831515021790555050565b6125e96125e3612d15565b83612dd6565b612628576040517f08c379a000000000000000000000000000000000000000000000000000000000815260040161261f906151e0565b60405180910390fd5b612634848484846131f4565b50505050565b612642612d15565b73ffffffffffffffffffffffffffffffffffffffff16612660612035565b73ffffffffffffffffffffffffffffffffffffffff16146126b6576040517f08c379a00000000000000000000000000000000000000000000000000000000081526004016126ad90615140565b60405180910390fd5b80600d60026101000a81548160ff02191690831515021790555050565b60606126de82612ca9565b61271d576040517f08c379a000000000000000000000000000000000000000000000000000000000815260040161271490615180565b60405180910390fd5b6000612727613250565b905060008151116127475760405180602001604052806000815250612772565b80612751846132e2565b604051602001612762929190614d78565b6040516020818303038152906040525b915050919050565b612782612d15565b73ffffffffffffffffffffffffffffffffffffffff166127a0612035565b73ffffffffffffffffffffffffffffffffffffffff16146127f6576040517f08c379a00000000000000000000000000000000000000000000000000000000081526004016127ed90615140565b60405180910390fd5b60016064610384612807919061534f565b612811919061534f565b612819610e27565b10612859576040517f08c379a000000000000000000000000000000000000000000000000000000000815260040161285090614f40565b60405180910390fd5b6001610384612868919061534f565b81600e54612876919061534f565b106128b6576040517f08c379a00000000000000000000000000000000000000000000000000000000081526004016128ad906150a0565b60405180910390fd5b60005b818110156128fa576001600e60008282546128d4919061534f565b925050819055506128e783600e54613110565b80806128f29061554c565b9150506128b9565b505050565b600d60019054906101000a900460ff1681565b61291a612d15565b73ffffffffffffffffffffffffffffffffffffffff16612938612035565b73ffffffffffffffffffffffffffffffffffffffff161461298e576040517f08c379a000000000000000000000000000000000000000000000000000000000815260040161298590615140565b60405180910390fd5b80600c8190555050565b600f5481565b600b5481565b6060601080546129b39061551a565b80601f01602080910402602001604051908101604052809291908181526020018280546129df9061551a565b8015612a2c5780601f10612a0157610100808354040283529160200191612a2c565b820191906000526020600020905b815481529060010190602001808311612a0f57829003601f168201915b5050505050905090565b6000600560008473ffffffffffffffffffffffffffffffffffffffff1673ffffffffffffffffffffffffffffffffffffffff16815260200190815260200160002060008373ffffffffffffffffffffffffffffffffffffffff1673ffffffffffffffffffffffffffffffffffffffff16815260200190815260200160002060009054906101000a900460ff16905092915050565b600181565b612ad7612d15565b73ffffffffffffffffffffffffffffffffffffffff16612af5612035565b73ffffffffffffffffffffffffffffffffffffffff1614612b4b576040517f08c379a0000000000000000000000000000000000000000000000000000000008152600401612b4290615140565b60405180910390fd5b600073ffffffffffffffffffffffffffffffffffffffff168173ffffffffffffffffffffffffffffffffffffffff161415612bbb576040517f08c379a0000000000000000000000000000000000000000000000000000000008152600401612bb290614f20565b60405180910390fd5b612bc48161312e565b50565b60007f80ac58cd000000000000000000000000000000000000000000000000000000007bffffffffffffffffffffffffffffffffffffffffffffffffffffffff1916827bffffffffffffffffffffffffffffffffffffffffffffffffffffffff19161480612c9257507f5b5e139f000000000000000000000000000000000000000000000000000000007bffffffffffffffffffffffffffffffffffffffffffffffffffffffff1916827bffffffffffffffffffffffffffffffffffffffffffffffffffffffff1916145b80612ca25750612ca18261348f565b5b9050919050565b60008073ffffffffffffffffffffffffffffffffffffffff166002600084815260200190815260200160002060009054906101000a900473ffffffffffffffffffffffffffffffffffffffff1673ffffffffffffffffffffffffffffffffffffffff1614159050919050565b600033905090565b816004600083815260200190815260200160002060006101000a81548173ffffffffffffffffffffffffffffffffffffffff021916908373ffffffffffffffffffffffffffffffffffffffff160217905550808273ffffffffffffffffffffffffffffffffffffffff16612d9083611817565b73ffffffffffffffffffffffffffffffffffffffff167f8c5be1e5ebec7d5bd14f71427d1e84f3dd0314c0f7b2291e5b200ac8c7c3b92560405160405180910390a45050565b6000612de182612ca9565b612e20576040517f08c379a0000000000000000000000000000000000000000000000000000000008152600401612e1790615000565b60405180910390fd5b6000612e2b83611817565b90508073ffffffffffffffffffffffffffffffffffffffff168473ffffffffffffffffffffffffffffffffffffffff161480612e9a57508373ffffffffffffffffffffffffffffffffffffffff16612e8284610c8a565b73ffffffffffffffffffffffffffffffffffffffff16145b80612eab5750612eaa8185612a36565b5b91505092915050565b8273ffffffffffffffffffffffffffffffffffffffff16612ed482611817565b73ffffffffffffffffffffffffffffffffffffffff1614612f2a576040517f08c379a0000000000000000000000000000000000000000000000000000000008152600401612f2190615160565b60405180910390fd5b600073ffffffffffffffffffffffffffffffffffffffff168273ffffffffffffffffffffffffffffffffffffffff161415612f9a576040517f08c379a0000000000000000000000000000000000000000000000000000000008152600401612f9190614fa0565b60405180910390fd5b612fa58383836134f9565b612fb0600082612d1d565b6001600360008573ffffffffffffffffffffffffffffffffffffffff1673ffffffffffffffffffffffffffffffffffffffff16815260200190815260200160002060008282546130009190615430565b925050819055506001600360008473ffffffffffffffffffffffffffffffffffffffff1673ffffffffffffffffffffffffffffffffffffffff1681526020019081526020016000206000828254613057919061534f565b92505081905550816002600083815260200190815260200160002060006101000a81548173ffffffffffffffffffffffffffffffffffffffff021916908373ffffffffffffffffffffffffffffffffffffffff160217905550808273ffffffffffffffffffffffffffffffffffffffff168473ffffffffffffffffffffffffffffffffffffffff167fddf252ad1be2c89b69c2b068fc378daa952ba7f163c4a11628f55a4df523b3ef60405160405180910390a4505050565b61312a82826040518060200160405280600081525061360d565b5050565b6000600a60009054906101000a900473ffffffffffffffffffffffffffffffffffffffff16905081600a60006101000a81548173ffffffffffffffffffffffffffffffffffffffff021916908373ffffffffffffffffffffffffffffffffffffffff1602179055508173ffffffffffffffffffffffffffffffffffffffff168173ffffffffffffffffffffffffffffffffffffffff167f8be0079c531659141344cd1fd0a4f28419497f9722a3daafe3b4186f6b6457e060405160405180910390a35050565b6131ff848484612eb4565b61320b84848484613668565b61324a576040517f08c379a000000000000000000000000000000000000000000000000000000000815260040161324190614f00565b60405180910390fd5b50505050565b60606011805461325f9061551a565b80601f016020809104026020016040519081016040528092919081815260200182805461328b9061551a565b80156132d85780601f106132ad576101008083540402835291602001916132d8565b820191906000526020600020905b8154815290600101906020018083116132bb57829003601f168201915b5050505050905090565b6060600082141561332a576040518060400160405280600181526020017f3000000000000000000000000000000000000000000000000000000000000000815250905061348a565b600082905060005b6000821461335c5780806133459061554c565b915050600a8261335591906153a5565b9150613332565b60008167ffffffffffffffff81111561339e577f4e487b7100000000000000000000000000000000000000000000000000000000600052604160045260246000fd5b6040519080825280601f01601f1916602001820160405280156133d05781602001600182028036833780820191505090505b5090505b60008514613483576001826133e99190615430565b9150600a856133f89190615595565b6030613404919061534f565b60f81b818381518110613440577f4e487b7100000000000000000000000000000000000000000000000000000000600052603260045260246000fd5b60200101907effffffffffffffffffffffffffffffffffffffffffffffffffffffffffffff1916908160001a905350600a8561347c91906153a5565b94506133d4565b8093505050505b919050565b60007f01ffc9a7000000000000000000000000000000000000000000000000000000007bffffffffffffffffffffffffffffffffffffffffffffffffffffffff1916827bffffffffffffffffffffffffffffffffffffffffffffffffffffffff1916149050919050565b6135048383836137ff565b600073ffffffffffffffffffffffffffffffffffffffff168373ffffffffffffffffffffffffffffffffffffffff1614156135475761354281613804565b613586565b8173ffffffffffffffffffffffffffffffffffffffff168373ffffffffffffffffffffffffffffffffffffffff161461358557613584838261384d565b5b5b600073ffffffffffffffffffffffffffffffffffffffff168273ffffffffffffffffffffffffffffffffffffffff1614156135c9576135c4816139ba565b613608565b8273ffffffffffffffffffffffffffffffffffffffff168273ffffffffffffffffffffffffffffffffffffffff1614613607576136068282613afd565b5b5b505050565b6136178383613b7c565b6136246000848484613668565b613663576040517f08c379a000000000000000000000000000000000000000000000000000000000815260040161365a90614f00565b60405180910390fd5b505050565b60006136898473ffffffffffffffffffffffffffffffffffffffff16613d4a565b156137f2578373ffffffffffffffffffffffffffffffffffffffff1663150b7a026136b2612d15565b8786866040518563ffffffff1660e01b81526004016136d49493929190614db7565b602060405180830381600087803b1580156136ee57600080fd5b505af192505050801561371f57506040513d601f19601f8201168201806040525081019061371c91906141c1565b60015b6137a2573d806000811461374f576040519150601f19603f3d011682016040523d82523d6000602084013e613754565b606091505b5060008151141561379a576040517f08c379a000000000000000000000000000000000000000000000000000000000815260040161379190614f00565b60405180910390fd5b805181602001fd5b63150b7a0260e01b7bffffffffffffffffffffffffffffffffffffffffffffffffffffffff1916817bffffffffffffffffffffffffffffffffffffffffffffffffffffffff1916149150506137f7565b600190505b949350505050565b505050565b6008805490506009600083815260200190815260200160002081905550600881908060018154018082558091505060019003906000526020600020016000909190919091505550565b6000600161385a846118c9565b6138649190615430565b9050600060076000848152602001908152602001600020549050818114613949576000600660008673ffffffffffffffffffffffffffffffffffffffff1673ffffffffffffffffffffffffffffffffffffffff168152602001908152602001600020600084815260200190815260200160002054905080600660008773ffffffffffffffffffffffffffffffffffffffff1673ffffffffffffffffffffffffffffffffffffffff168152602001908152602001600020600084815260200190815260200160002081905550816007600083815260200190815260200160002081905550505b6007600084815260200190815260200160002060009055600660008573ffffffffffffffffffffffffffffffffffffffff1673ffffffffffffffffffffffffffffffffffffffff16815260200190815260200160002060008381526020019081526020016000206000905550505050565b600060016008805490506139ce9190615430565b9050600060096000848152602001908152602001600020549050600060088381548110613a24577f4e487b7100000000000000000000000000000000000000000000000000000000600052603260045260246000fd5b906000526020600020015490508060088381548110613a6c577f4e487b7100000000000000000000000000000000000000000000000000000000600052603260045260246000fd5b906000526020600020018190555081600960008381526020019081526020016000208190555060096000858152602001908152602001600020600090556008805480613ae1577f4e487b7100000000000000000000000000000000000000000000000000000000600052603160045260246000fd5b6001900381819060005260206000200160009055905550505050565b6000613b08836118c9565b905081600660008573ffffffffffffffffffffffffffffffffffffffff1673ffffffffffffffffffffffffffffffffffffffff168152602001908152602001600020600083815260200190815260200160002081905550806007600084815260200190815260200160002081905550505050565b600073ffffffffffffffffffffffffffffffffffffffff168273ffffffffffffffffffffffffffffffffffffffff161415613bec576040517f08c379a0000000000000000000000000000000000000000000000000000000008152600401613be390615100565b60405180910390fd5b613bf581612ca9565b15613c35576040517f08c379a0000000000000000000000000000000000000000000000000000000008152600401613c2c90614f60565b60405180910390fd5b613c41600083836134f9565b6001600360008473ffffffffffffffffffffffffffffffffffffffff1673ffffffffffffffffffffffffffffffffffffffff1681526020019081526020016000206000828254613c91919061534f565b92505081905550816002600083815260200190815260200160002060006101000a81548173ffffffffffffffffffffffffffffffffffffffff021916908373ffffffffffffffffffffffffffffffffffffffff160217905550808273ffffffffffffffffffffffffffffffffffffffff16600073ffffffffffffffffffffffffffffffffffffffff167fddf252ad1be2c89b69c2b068fc378daa952ba7f163c4a11628f55a4df523b3ef60405160405180910390a45050565b600080823b905060008111915050919050565b828054613d699061551a565b90600052602060002090601f016020900481019282613d8b5760008555613dd2565b82601f10613da457805160ff1916838001178555613dd2565b82800160010185558215613dd2579182015b82811115613dd1578251825591602001919060010190613db6565b5b509050613ddf9190613de3565b5090565b5b80821115613dfc576000816000905550600101613de4565b5090565b6000613e13613e0e846152ac565b61527b565b905082815260208101848484011115613e2b57600080fd5b613e368482856154d8565b509392505050565b6000613e51613e4c846152dc565b61527b565b905082815260208101848484011115613e6957600080fd5b613e748482856154d8565b509392505050565b600081359050613e8b81615693565b92915050565b60008083601f840112613ea357600080fd5b8235905067ffffffffffffffff811115613ebc57600080fd5b602083019150836020820283011115613ed457600080fd5b9250929050565b600081359050613eea816156aa565b92915050565b600081359050613eff816156c1565b92915050565b600081519050613f14816156c1565b92915050565b600082601f830112613f2b57600080fd5b8135613f3b848260208601613e00565b91505092915050565b600082601f830112613f5557600080fd5b8135613f65848260208601613e3e565b91505092915050565b600081359050613f7d816156d8565b92915050565b600060208284031215613f9557600080fd5b6000613fa384828501613e7c565b91505092915050565b60008060408385031215613fbf57600080fd5b6000613fcd85828601613e7c565b9250506020613fde85828601613e7c565b9150509250929050565b600080600060608486031215613ffd57600080fd5b600061400b86828701613e7c565b935050602061401c86828701613e7c565b925050604061402d86828701613f6e565b9150509250925092565b6000806000806080858703121561404d57600080fd5b600061405b87828801613e7c565b945050602061406c87828801613e7c565b935050604061407d87828801613f6e565b925050606085013567ffffffffffffffff81111561409a57600080fd5b6140a687828801613f1a565b91505092959194509250565b600080604083850312156140c557600080fd5b60006140d385828601613e7c565b92505060206140e485828601613edb565b9150509250929050565b6000806040838503121561410157600080fd5b600061410f85828601613e7c565b925050602061412085828601613f6e565b9150509250929050565b6000806020838503121561413d57600080fd5b600083013567ffffffffffffffff81111561415757600080fd5b61416385828601613e91565b92509250509250929050565b60006020828403121561418157600080fd5b600061418f84828501613edb565b91505092915050565b6000602082840312156141aa57600080fd5b60006141b884828501613ef0565b91505092915050565b6000602082840312156141d357600080fd5b60006141e184828501613f05565b91505092915050565b6000602082840312156141fc57600080fd5b600082013567ffffffffffffffff81111561421657600080fd5b61422284828501613f44565b91505092915050565b60006020828403121561423d57600080fd5b600061424b84828501613f6e565b91505092915050565b61425d81615464565b82525050565b61426c81615476565b82525050565b600061427d8261530c565b6142878185615322565b93506142978185602086016154e7565b6142a081615682565b840191505092915050565b60006142b682615317565b6142c08185615333565b93506142d08185602086016154e7565b6142d981615682565b840191505092915050565b60006142ef82615317565b6142f98185615344565b93506143098185602086016154e7565b80840191505092915050565b6000614322601a83615333565b91507f5a65726f2061646472657373206e6f7420636c61696d61626c650000000000006000830152602082019050919050565b6000614362601d83615333565b91507f43616e27742072656d6f766520746865206e756c6c20616464726573730000006000830152602082019050919050565b60006143a2601e83615333565b91507f536574204261736520555249206265666f72652061637469766174696e6700006000830152602082019050919050565b60006143e2601783615333565b91507f57686974656c697374206973206e6f74206163746976650000000000000000006000830152602082019050919050565b6000614422602b83615333565b91507f455243373231456e756d657261626c653a206f776e657220696e646578206f7560008301527f74206f6620626f756e64730000000000000000000000000000000000000000006020830152604082019050919050565b6000614488600e83615333565b91507f4f766572206d6178206c696d69740000000000000000000000000000000000006000830152602082019050919050565b60006144c8603283615333565b91507f4552433732313a207472616e7366657220746f206e6f6e20455243373231526560008301527f63656976657220696d706c656d656e74657200000000000000000000000000006020830152604082019050919050565b600061452e602683615333565b91507f4f776e61626c653a206e6577206f776e657220697320746865207a65726f206160008301527f64647265737300000000000000000000000000000000000000000000000000006020830152604082019050919050565b6000614594601183615333565b91507f416c6c20746f6b656e73206d696e7465640000000000000000000000000000006000830152602082019050919050565b60006145d4601c83615333565b91507f4552433732313a20746f6b656e20616c7265616479206d696e746564000000006000830152602082019050919050565b6000614614602083615333565b91507f57686974656c69737420746f6b656e7320616c726561647920636c61696d65646000830152602082019050919050565b6000614654602483615333565b91507f4552433732313a207472616e7366657220746f20746865207a65726f2061646460008301527f72657373000000000000000000000000000000000000000000000000000000006020830152604082019050919050565b60006146ba601983615333565b91507f4552433732313a20617070726f766520746f2063616c6c6572000000000000006000830152602082019050919050565b60006146fa601583615333565b91507f4f766572206d6178207075626c6963206c696d697400000000000000000000006000830152602082019050919050565b600061473a602c83615333565b91507f4552433732313a206f70657261746f7220717565727920666f72206e6f6e657860008301527f697374656e7420746f6b656e00000000000000000000000000000000000000006020830152604082019050919050565b60006147a0601483615333565b91507f436f6e747261637420697320696e6163746976650000000000000000000000006000830152602082019050919050565b60006147e0603883615333565b91507f4552433732313a20617070726f76652063616c6c6572206973206e6f74206f7760008301527f6e6572206e6f7220617070726f76656420666f7220616c6c00000000000000006020830152604082019050919050565b6000614846602a83615333565b91507f4552433732313a2062616c616e636520717565727920666f7220746865207a6560008301527f726f2061646472657373000000000000000000000000000000000000000000006020830152604082019050919050565b60006148ac602983615333565b91507f4552433732313a206f776e657220717565727920666f72206e6f6e657869737460008301527f656e7420746f6b656e00000000000000000000000000000000000000000000006020830152604082019050919050565b6000614912601683615333565b91507f45786365656473207072697661746520737570706c79000000000000000000006000830152602082019050919050565b6000614952601983615333565b91507f45544820616d6f756e74206973206e6f7420636f7272656374000000000000006000830152602082019050919050565b6000614992601c83615333565b91507f596f7520617265206e6f74206f6e207468652057686974656c697374000000006000830152602082019050919050565b60006149d2602083615333565b91507f4552433732313a206d696e7420746f20746865207a65726f20616464726573736000830152602082019050919050565b6000614a12602c83615333565b91507f4552433732313a20617070726f76656420717565727920666f72206e6f6e657860008301527f697374656e7420746f6b656e00000000000000000000000000000000000000006020830152604082019050919050565b6000614a78602083615333565b91507f4f776e61626c653a2063616c6c6572206973206e6f7420746865206f776e65726000830152602082019050919050565b6000614ab8602983615333565b91507f4552433732313a207472616e73666572206f6620746f6b656e2074686174206960008301527f73206e6f74206f776e00000000000000000000000000000000000000000000006020830152604082019050919050565b6000614b1e602f83615333565b91507f4552433732314d657461646174613a2055524920717565727920666f72206e6f60008301527f6e6578697374656e7420746f6b656e00000000000000000000000000000000006020830152604082019050919050565b6000614b84601a83615333565b91507f46726565206d696e74696e67206973206e6f74206163746976650000000000006000830152602082019050919050565b6000614bc4602183615333565b91507f4552433732313a20617070726f76616c20746f2063757272656e74206f776e6560008301527f72000000000000000000000000000000000000000000000000000000000000006020830152604082019050919050565b6000614c2a603183615333565b91507f4552433732313a207472616e736665722063616c6c6572206973206e6f74206f60008301527f776e6572206e6f7220617070726f7665640000000000000000000000000000006020830152604082019050919050565b6000614c90602c83615333565b91507f455243373231456e756d657261626c653a20676c6f62616c20696e646578206f60008301527f7574206f6620626f756e647300000000000000000000000000000000000000006020830152604082019050919050565b6000614cf6601a83615333565b91507f4672656520746f6b656e20616c726561647920636c61696d65640000000000006000830152602082019050919050565b6000614d36601783615333565b91507f4554482073656e74206973206e6f7420636f72726563740000000000000000006000830152602082019050919050565b614d72816154ce565b82525050565b6000614d8482856142e4565b9150614d9082846142e4565b91508190509392505050565b6000602082019050614db16000830184614254565b92915050565b6000608082019050614dcc6000830187614254565b614dd96020830186614254565b614de66040830185614d69565b8181036060830152614df88184614272565b905095945050505050565b6000602082019050614e186000830184614263565b92915050565b60006020820190508181036000830152614e3881846142ab565b905092915050565b60006020820190508181036000830152614e5981614315565b9050919050565b60006020820190508181036000830152614e7981614355565b9050919050565b60006020820190508181036000830152614e9981614395565b9050919050565b60006020820190508181036000830152614eb9816143d5565b9050919050565b60006020820190508181036000830152614ed981614415565b9050919050565b60006020820190508181036000830152614ef98161447b565b9050919050565b60006020820190508181036000830152614f19816144bb565b9050919050565b60006020820190508181036000830152614f3981614521565b9050919050565b60006020820190508181036000830152614f5981614587565b9050919050565b60006020820190508181036000830152614f79816145c7565b9050919050565b60006020820190508181036000830152614f9981614607565b9050919050565b60006020820190508181036000830152614fb981614647565b9050919050565b60006020820190508181036000830152614fd9816146ad565b9050919050565b60006020820190508181036000830152614ff9816146ed565b9050919050565b600060208201905081810360008301526150198161472d565b9050919050565b6000602082019050818103600083015261503981614793565b9050919050565b60006020820190508181036000830152615059816147d3565b9050919050565b6000602082019050818103600083015261507981614839565b9050919050565b600060208201905081810360008301526150998161489f565b9050919050565b600060208201905081810360008301526150b981614905565b9050919050565b600060208201905081810360008301526150d981614945565b9050919050565b600060208201905081810360008301526150f981614985565b9050919050565b60006020820190508181036000830152615119816149c5565b9050919050565b6000602082019050818103600083015261513981614a05565b9050919050565b6000602082019050818103600083015261515981614a6b565b9050919050565b6000602082019050818103600083015261517981614aab565b9050919050565b6000602082019050818103600083015261519981614b11565b9050919050565b600060208201905081810360008301526151b981614b77565b9050919050565b600060208201905081810360008301526151d981614bb7565b9050919050565b600060208201905081810360008301526151f981614c1d565b9050919050565b6000602082019050818103600083015261521981614c83565b9050919050565b6000602082019050818103600083015261523981614ce9565b9050919050565b6000602082019050818103600083015261525981614d29565b9050919050565b60006020820190506152756000830184614d69565b92915050565b6000604051905081810181811067ffffffffffffffff821117156152a2576152a1615653565b5b8060405250919050565b600067ffffffffffffffff8211156152c7576152c6615653565b5b601f19601f8301169050602081019050919050565b600067ffffffffffffffff8211156152f7576152f6615653565b5b601f19601f8301169050602081019050919050565b600081519050919050565b600081519050919050565b600082825260208201905092915050565b600082825260208201905092915050565b600081905092915050565b600061535a826154ce565b9150615365836154ce565b9250827fffffffffffffffffffffffffffffffffffffffffffffffffffffffffffffffff0382111561539a576153996155c6565b5b828201905092915050565b60006153b0826154ce565b91506153bb836154ce565b9250826153cb576153ca6155f5565b5b828204905092915050565b60006153e1826154ce565b91506153ec836154ce565b9250817fffffffffffffffffffffffffffffffffffffffffffffffffffffffffffffffff0483118215151615615425576154246155c6565b5b828202905092915050565b600061543b826154ce565b9150615446836154ce565b925082821015615459576154586155c6565b5b828203905092915050565b600061546f826154ae565b9050919050565b60008115159050919050565b60007fffffffff0000000000000000000000000000000000000000000000000000000082169050919050565b600073ffffffffffffffffffffffffffffffffffffffff82169050919050565b6000819050919050565b82818337600083830152505050565b60005b838110156155055780820151818401526020810190506154ea565b83811115615514576000848401525b50505050565b6000600282049050600182168061553257607f821691505b6020821081141561554657615545615624565b5b50919050565b6000615557826154ce565b91507fffffffffffffffffffffffffffffffffffffffffffffffffffffffffffffffff82141561558a576155896155c6565b5b600182019050919050565b60006155a0826154ce565b91506155ab836154ce565b9250826155bb576155ba6155f5565b5b828206905092915050565b7f4e487b7100000000000000000000000000000000000000000000000000000000600052601160045260246000fd5b7f4e487b7100000000000000000000000000000000000000000000000000000000600052601260045260246000fd5b7f4e487b7100000000000000000000000000000000000000000000000000000000600052602260045260246000fd5b7f4e487b7100000000000000000000000000000000000000000000000000000000600052604160045260246000fd5b6000601f19601f8301169050919050565b61569c81615464565b81146156a757600080fd5b50565b6156b381615476565b81146156be57600080fd5b50565b6156ca81615482565b81146156d557600080fd5b50565b6156e1816154ce565b81146156ec57600080fd5b5056fea2646970667358221220345312de90ca25d7607fdc57034b28225262fc5ac8d29fdb0734661170cb5d7c64736f6c63430008000033",
  "linkReferences": {},
  "deployedLinkReferences": {}
}